{
  "contractName": "KYLCrowdsale",
  "abi": [
    {
      "constant": true,
      "inputs": [],
      "name": "endBlock",
      "outputs": [
        {
          "name": "",
          "type": "uint256"
        }
      ],
      "payable": false,
      "stateMutability": "view",
      "type": "function"
    },
    {
      "constant": true,
      "inputs": [],
      "name": "rate",
      "outputs": [
        {
          "name": "",
          "type": "uint256"
        }
      ],
      "payable": false,
      "stateMutability": "view",
      "type": "function"
    },
    {
      "constant": true,
      "inputs": [],
      "name": "cap",
      "outputs": [
        {
          "name": "",
          "type": "uint256"
        }
      ],
      "payable": false,
      "stateMutability": "view",
      "type": "function"
    },
    {
      "constant": true,
      "inputs": [
        {
          "name": "buyer",
          "type": "address"
        }
      ],
      "name": "isWhitelisted",
      "outputs": [
        {
          "name": "",
          "type": "bool"
        }
      ],
      "payable": false,
      "stateMutability": "view",
      "type": "function"
    },
    {
      "constant": false,
      "inputs": [],
      "name": "unpause",
      "outputs": [
        {
          "name": "",
          "type": "bool"
        }
      ],
      "payable": false,
      "stateMutability": "nonpayable",
      "type": "function"
    },
    {
      "constant": true,
      "inputs": [],
      "name": "weiRaised",
      "outputs": [
        {
          "name": "",
          "type": "uint256"
        }
      ],
      "payable": false,
      "stateMutability": "view",
      "type": "function"
    },
    {
      "constant": true,
      "inputs": [],
      "name": "startBlock",
      "outputs": [
        {
          "name": "",
          "type": "uint256"
        }
      ],
      "payable": false,
      "stateMutability": "view",
      "type": "function"
    },
    {
      "constant": true,
      "inputs": [],
      "name": "wallet",
      "outputs": [
        {
          "name": "",
          "type": "address"
        }
      ],
      "payable": false,
      "stateMutability": "view",
      "type": "function"
    },
    {
      "constant": true,
      "inputs": [],
      "name": "paused",
      "outputs": [
        {
          "name": "",
          "type": "bool"
        }
      ],
      "payable": false,
      "stateMutability": "view",
      "type": "function"
    },
    {
      "constant": true,
      "inputs": [],
      "name": "teamCap",
      "outputs": [
        {
          "name": "",
          "type": "uint256"
        }
      ],
      "payable": false,
      "stateMutability": "view",
      "type": "function"
    },
    {
      "constant": false,
      "inputs": [],
      "name": "pause",
      "outputs": [
        {
          "name": "",
          "type": "bool"
        }
      ],
      "payable": false,
      "stateMutability": "nonpayable",
      "type": "function"
    },
    {
      "constant": true,
      "inputs": [],
      "name": "airdropCap",
      "outputs": [
        {
          "name": "",
          "type": "uint256"
        }
      ],
      "payable": false,
      "stateMutability": "view",
      "type": "function"
    },
    {
      "constant": true,
      "inputs": [],
      "name": "owner",
      "outputs": [
        {
          "name": "",
          "type": "address"
        }
      ],
      "payable": false,
      "stateMutability": "view",
      "type": "function"
    },
    {
      "constant": true,
      "inputs": [],
      "name": "softCap",
      "outputs": [
        {
          "name": "",
          "type": "uint256"
        }
      ],
      "payable": false,
      "stateMutability": "view",
      "type": "function"
    },
    {
      "constant": true,
      "inputs": [],
      "name": "stage",
      "outputs": [
        {
          "name": "",
          "type": "uint8"
        }
      ],
      "payable": false,
      "stateMutability": "view",
      "type": "function"
    },
    {
      "constant": true,
      "inputs": [],
      "name": "hasEnded",
      "outputs": [
        {
          "name": "",
          "type": "bool"
        }
      ],
      "payable": false,
      "stateMutability": "view",
      "type": "function"
    },
    {
      "constant": false,
      "inputs": [
        {
          "name": "newOwner",
          "type": "address"
        }
      ],
      "name": "transferOwnership",
      "outputs": [],
      "payable": false,
      "stateMutability": "nonpayable",
      "type": "function"
    },
    {
      "constant": true,
      "inputs": [],
      "name": "hardCap",
      "outputs": [
        {
          "name": "",
          "type": "uint256"
        }
      ],
      "payable": false,
      "stateMutability": "view",
      "type": "function"
    },
    {
      "constant": true,
      "inputs": [],
      "name": "token",
      "outputs": [
        {
          "name": "",
          "type": "address"
        }
      ],
      "payable": false,
      "stateMutability": "view",
      "type": "function"
    },
    {
      "inputs": [
        {
          "name": "_startBlock",
          "type": "uint256"
        },
        {
          "name": "_endBlock",
          "type": "uint256"
        },
        {
          "name": "_fixRate",
          "type": "uint256"
        },
        {
          "name": "_cap",
          "type": "uint256"
        },
        {
          "name": "wallet",
          "type": "address"
        }
      ],
      "payable": false,
      "stateMutability": "nonpayable",
      "type": "constructor"
    },
    {
      "payable": true,
      "stateMutability": "payable",
      "type": "fallback"
    },
    {
      "anonymous": false,
      "inputs": [],
      "name": "PreCrowdsaleStarted",
      "type": "event"
    },
    {
      "anonymous": false,
      "inputs": [],
      "name": "CrowdsaleStarted",
      "type": "event"
    },
    {
      "anonymous": false,
      "inputs": [],
      "name": "CrowdsaleFinished",
      "type": "event"
    },
    {
      "anonymous": false,
      "inputs": [
        {
          "indexed": false,
          "name": "rate",
          "type": "uint256"
        }
      ],
      "name": "RateChanged",
      "type": "event"
    },
    {
      "anonymous": false,
      "inputs": [
        {
          "indexed": true,
          "name": "who",
          "type": "address"
        },
        {
          "indexed": false,
          "name": "tokens",
          "type": "uint256"
        }
      ],
      "name": "ExternalPurchase",
      "type": "event"
    },
    {
      "anonymous": false,
      "inputs": [
        {
          "indexed": true,
          "name": "who",
          "type": "address"
        },
        {
          "indexed": false,
          "name": "tokens",
          "type": "uint256"
        }
      ],
      "name": "AirDroppedTokens",
      "type": "event"
    },
    {
      "anonymous": false,
      "inputs": [
        {
          "indexed": false,
          "name": "tokens",
          "type": "uint256"
        }
      ],
      "name": "TeamMintedTokens",
      "type": "event"
    },
    {
      "anonymous": false,
      "inputs": [],
      "name": "Pause",
      "type": "event"
    },
    {
      "anonymous": false,
      "inputs": [],
      "name": "Unpause",
      "type": "event"
    },
    {
      "anonymous": false,
      "inputs": [
        {
          "indexed": true,
          "name": "purchaser",
          "type": "address"
        },
        {
          "indexed": true,
          "name": "beneficiary",
          "type": "address"
        },
        {
          "indexed": false,
          "name": "value",
          "type": "uint256"
        },
        {
          "indexed": false,
          "name": "amount",
          "type": "uint256"
        }
      ],
      "name": "TokenPurchase",
      "type": "event"
    },
    {
      "constant": false,
      "inputs": [
        {
          "name": "buyer",
          "type": "address"
        }
      ],
      "name": "addToWhitelist",
      "outputs": [],
      "payable": false,
      "stateMutability": "nonpayable",
      "type": "function"
    },
    {
      "constant": false,
      "inputs": [
        {
          "name": "_rate",
          "type": "uint256"
        }
      ],
      "name": "setRate",
      "outputs": [],
      "payable": false,
      "stateMutability": "nonpayable",
      "type": "function"
    },
    {
      "constant": false,
      "inputs": [
        {
          "name": "who",
          "type": "address"
        }
      ],
      "name": "buyTokens",
      "outputs": [],
      "payable": true,
      "stateMutability": "payable",
      "type": "function"
    },
    {
      "constant": false,
      "inputs": [
        {
          "name": "who",
          "type": "address"
        },
        {
          "name": "tokens",
          "type": "uint256"
        }
      ],
      "name": "mintTo",
      "outputs": [],
      "payable": false,
      "stateMutability": "nonpayable",
      "type": "function"
    },
    {
      "constant": false,
      "inputs": [
        {
          "name": "who",
          "type": "address"
        },
        {
          "name": "tokens",
          "type": "uint256"
        }
      ],
      "name": "airDrop",
      "outputs": [],
      "payable": false,
      "stateMutability": "nonpayable",
      "type": "function"
    },
    {
      "constant": false,
      "inputs": [
        {
          "name": "_rate",
          "type": "uint256"
        }
      ],
      "name": "endPreICO",
      "outputs": [],
      "payable": false,
      "stateMutability": "nonpayable",
      "type": "function"
    },
    {
      "constant": false,
      "inputs": [],
      "name": "finalize",
      "outputs": [],
      "payable": false,
      "stateMutability": "nonpayable",
      "type": "function"
    },
    {
      "constant": false,
      "inputs": [
        {
          "name": "who",
          "type": "address"
        }
      ],
      "name": "freezeTokens",
      "outputs": [],
      "payable": false,
      "stateMutability": "nonpayable",
      "type": "function"
    },
    {
      "constant": false,
      "inputs": [
        {
          "name": "who",
          "type": "address"
        }
      ],
      "name": "unfreezeTokens",
      "outputs": [],
      "payable": false,
      "stateMutability": "nonpayable",
      "type": "function"
    },
    {
      "constant": false,
      "inputs": [
        {
          "name": "tokens",
          "type": "uint256"
        }
      ],
      "name": "teamMint",
      "outputs": [],
      "payable": false,
      "stateMutability": "nonpayable",
      "type": "function"
    },
    {
      "constant": false,
      "inputs": [],
      "name": "finalizeAll",
      "outputs": [],
      "payable": false,
      "stateMutability": "nonpayable",
      "type": "function"
    },
    {
      "constant": true,
      "inputs": [],
      "name": "getData",
      "outputs": [
        {
          "name": "",
          "type": "uint256[]"
        }
      ],
      "payable": false,
      "stateMutability": "view",
      "type": "function"
    }
  ],
  "bytecode": "0x60806040526000600660146101000a81548160ff0219169083151502179055503480156200002c57600080fd5b5060405160a080620046e58339810180604052810190808051906020019092919080519060200190929190805190602001909291908051906020019092919080519060200190929190505050670de0b6b3a76400008202858585844384101515156200009757600080fd5b838310151515620000a757600080fd5b600082111515620000b757600080fd5b60008173ffffffffffffffffffffffffffffffffffffffff1614151515620000de57600080fd5b620000f762000333640100000000026401000000009004565b6000806101000a81548173ffffffffffffffffffffffffffffffffffffffff021916908373ffffffffffffffffffffffffffffffffffffffff16021790555083600181905550826002819055508160048190555080600360006101000a81548173ffffffffffffffffffffffffffffffffffffffff021916908373ffffffffffffffffffffffffffffffffffffffff1602179055505050505033600660006101000a81548173ffffffffffffffffffffffffffffffffffffffff021916908373ffffffffffffffffffffffffffffffffffffffff160217905550600081111515620001e157600080fd5b80600881905550506000600960006101000a81548160ff021916908360018111156200020957fe5b021790555062e4e1c0600a819055506302faf080600b819055506301c9c380600c81905550624c4b40600d819055506000809054906101000a900473ffffffffffffffffffffffffffffffffffffffff1673ffffffffffffffffffffffffffffffffffffffff16638456cb596040518163ffffffff167c0100000000000000000000000000000000000000000000000000000000028152600401602060405180830381600087803b158015620002be57600080fd5b505af1158015620002d3573d6000803e3d6000fd5b505050506040513d6020811015620002ea57600080fd5b8101908080519060200190929190505050507fb1dd97be97eb6bdaea11005c9af4267f88b6b8031dece9c50460b39cacdce84360405160405180910390a1505050505062000373565b60006200033f62000362565b604051809103906000f0801580156200035c573d6000803e3d6000fd5b50905090565b604051611ee880620027fd83390190565b61247a80620003836000396000f30060806040526004361061018b576000357c0100000000000000000000000000000000000000000000000000000000900463ffffffff168063045f785014610196578063083c6323146101e35780631e52d8301461020e5780632c4e722e1461023b5780632fbba1151461026657806334fcf43714610293578063355274ea146102c05780633af32abf146102eb5780633bc5de30146103465780633f4ba83a146103b25780634042b66f146103e1578063449a52f81461040c57806348cd4cb1146104595780634bb278f314610484578063521eb2731461049b5780635607f408146104f25780635c975abb146105355780636025d3e5146105645780636d81779b1461057b5780638456cb59146105a65780638d0b0b76146105d55780638da5cb5b14610600578063906a26e01461065757806390862d1b14610682578063c040e6b8146106c5578063e43252d7146106fe578063ec8ac4d814610741578063ecb70fb714610777578063f2fde38b146107a6578063fb86a404146107e9578063fc0c546a14610814575b6101943361086b565b005b3480156101a257600080fd5b506101e1600480360381019080803573ffffffffffffffffffffffffffffffffffffffff16906020019092919080359060200190929190505050610bce565b005b3480156101ef57600080fd5b506101f8610e0a565b6040518082815260200191505060405180910390f35b34801561021a57600080fd5b5061023960048036038101908080359060200190929190505050610e10565b005b34801561024757600080fd5b50610250610f43565b6040518082815260200191505060405180910390f35b34801561027257600080fd5b5061029160048036038101908080359060200190929190505050610f49565b005b34801561029f57600080fd5b506102be6004803603810190808035906020019092919050505061117c565b005b3480156102cc57600080fd5b506102d5611245565b6040518082815260200191505060405180910390f35b3480156102f757600080fd5b5061032c600480360381019080803573ffffffffffffffffffffffffffffffffffffffff16906020019092919050505061124b565b604051808215151515815260200191505060405180910390f35b34801561035257600080fd5b5061035b6112a1565b6040518080602001828103825283818151815260200191508051906020019060200280838360005b8381101561039e578082015181840152602081019050610383565b505050509050019250505060405180910390f35b3480156103be57600080fd5b506103c76113be565b604051808215151515815260200191505060405180910390f35b3480156103ed57600080fd5b506103f6611485565b6040518082815260200191505060405180910390f35b34801561041857600080fd5b50610457600480360381019080803573ffffffffffffffffffffffffffffffffffffffff1690602001909291908035906020019092919050505061148b565b005b34801561046557600080fd5b5061046e6117c7565b6040518082815260200191505060405180910390f35b34801561049057600080fd5b506104996117cd565b005b3480156104a757600080fd5b506104b0611a47565b604051808273ffffffffffffffffffffffffffffffffffffffff1673ffffffffffffffffffffffffffffffffffffffff16815260200191505060405180910390f35b3480156104fe57600080fd5b50610533600480360381019080803573ffffffffffffffffffffffffffffffffffffffff169060200190929190505050611a6d565b005b34801561054157600080fd5b5061054a611ba0565b604051808215151515815260200191505060405180910390f35b34801561057057600080fd5b50610579611bb3565b005b34801561058757600080fd5b50610590611dc3565b6040518082815260200191505060405180910390f35b3480156105b257600080fd5b506105bb611dc9565b604051808215151515815260200191505060405180910390f35b3480156105e157600080fd5b506105ea611e91565b6040518082815260200191505060405180910390f35b34801561060c57600080fd5b50610615611e97565b604051808273ffffffffffffffffffffffffffffffffffffffff1673ffffffffffffffffffffffffffffffffffffffff16815260200191505060405180910390f35b34801561066357600080fd5b5061066c611ebd565b6040518082815260200191505060405180910390f35b34801561068e57600080fd5b506106c3600480360381019080803573ffffffffffffffffffffffffffffffffffffffff169060200190929190505050611ec3565b005b3480156106d157600080fd5b506106da611ff6565b604051808260018111156106ea57fe5b60ff16815260200191505060405180910390f35b34801561070a57600080fd5b5061073f600480360381019080803573ffffffffffffffffffffffffffffffffffffffff169060200190929190505050612009565b005b610775600480360381019080803573ffffffffffffffffffffffffffffffffffffffff16906020019092919050505061086b565b005b34801561078357600080fd5b5061078c6120a5565b604051808215151515815260200191505060405180910390f35b3480156107b257600080fd5b506107e7600480360381019080803573ffffffffffffffffffffffffffffffffffffffff1690602001909291905050506120c8565b005b3480156107f557600080fd5b506107fe61219f565b6040518082815260200191505060405180910390f35b34801561082057600080fd5b506108296121a5565b604051808273ffffffffffffffffffffffffffffffffffffffff1673ffffffffffffffffffffffffffffffffffffffff16815260200191505060405180910390f35b600080600660149054906101000a900460ff1615151561088a57600080fd5b60008373ffffffffffffffffffffffffffffffffffffffff16141515156108b057600080fd5b6108b86121ca565b15156108c357600080fd5b3491506108db6004548361220090919063ffffffff16565b9050600060018111156108ea57fe5b600960009054906101000a900460ff16600181111561090557fe5b1415610997576109148361124b565b151561091f57600080fd5b600061095061093f670de0b6b3a76400008461223b90919063ffffffff16565b600a5461225690919063ffffffff16565b1015151561095d57600080fd5b61098c61097b670de0b6b3a76400008361223b90919063ffffffff16565b600a5461225690919063ffffffff16565b600a81905550610a39565b6001808111156109a357fe5b600960009054906101000a900460ff1660018111156109be57fe5b1415610a385760006109f56109e4670de0b6b3a76400008461223b90919063ffffffff16565b600b5461225690919063ffffffff16565b10151515610a0257600080fd5b610a31610a20670de0b6b3a76400008361223b90919063ffffffff16565b600b5461225690919063ffffffff16565b600b819055505b5b610a4e8260055461226f90919063ffffffff16565b6005819055506000809054906101000a900473ffffffffffffffffffffffffffffffffffffffff1673ffffffffffffffffffffffffffffffffffffffff166340c10f1984836040518363ffffffff167c0100000000000000000000000000000000000000000000000000000000028152600401808373ffffffffffffffffffffffffffffffffffffffff1673ffffffffffffffffffffffffffffffffffffffff16815260200182815260200192505050602060405180830381600087803b158015610b1857600080fd5b505af1158015610b2c573d6000803e3d6000fd5b505050506040513d6020811015610b4257600080fd5b8101908080519060200190929190505050508273ffffffffffffffffffffffffffffffffffffffff163373ffffffffffffffffffffffffffffffffffffffff167f623b3804fa71d67900d064613da8f94b9617215ee90799290593e1745087ad188484604051808381526020018281526020019250505060405180910390a3610bc961228d565b505050565b600660009054906101000a900473ffffffffffffffffffffffffffffffffffffffff1673ffffffffffffffffffffffffffffffffffffffff163373ffffffffffffffffffffffffffffffffffffffff16141515610c2a57600080fd5b60008273ffffffffffffffffffffffffffffffffffffffff1614151515610c5057600080fd5b600081111515610c5f57600080fd5b6000610c7682600d5461225690919063ffffffff16565b10151515610c8357600080fd5b610c9881600d5461225690919063ffffffff16565b600d819055506000809054906101000a900473ffffffffffffffffffffffffffffffffffffffff1673ffffffffffffffffffffffffffffffffffffffff166340c10f1983610cf7670de0b6b3a76400008561220090919063ffffffff16565b6040518363ffffffff167c0100000000000000000000000000000000000000000000000000000000028152600401808373ffffffffffffffffffffffffffffffffffffffff1673ffffffffffffffffffffffffffffffffffffffff16815260200182815260200192505050602060405180830381600087803b158015610d7c57600080fd5b505af1158015610d90573d6000803e3d6000fd5b505050506040513d6020811015610da657600080fd5b8101908080519060200190929190505050508173ffffffffffffffffffffffffffffffffffffffff167fa4171309aa20c94f7b0e295310f4f071d84286aa482020e09431d46f46ce89d9826040518082815260200191505060405180910390a25050565b60025481565b600660009054906101000a900473ffffffffffffffffffffffffffffffffffffffff1673ffffffffffffffffffffffffffffffffffffffff163373ffffffffffffffffffffffffffffffffffffffff16141515610e6c57600080fd5b600660149054906101000a900460ff161515610e8757600080fd5b60006001811115610e9457fe5b600960009054906101000a900460ff166001811115610eaf57fe5b141515610ebb57600080fd5b6001600960006101000a81548160ff02191690836001811115610eda57fe5b0217905550610ef6600a54600b5461226f90919063ffffffff16565b600b819055506000600a8190555080600481905550610f136113be565b507f4722e6c4579996b373f4de030a1847ddba1df215e3fc5388223a9873d563e7ef60405160405180910390a150565b60045481565b600660009054906101000a900473ffffffffffffffffffffffffffffffffffffffff1673ffffffffffffffffffffffffffffffffffffffff163373ffffffffffffffffffffffffffffffffffffffff16141515610fa557600080fd5b600081111515610fb457600080fd5b6000610fcb82600c5461225690919063ffffffff16565b10151515610fd857600080fd5b610fe06120a5565b1515610feb57600080fd5b61100081600c5461225690919063ffffffff16565b600c819055506000809054906101000a900473ffffffffffffffffffffffffffffffffffffffff1673ffffffffffffffffffffffffffffffffffffffff166340c10f19600360009054906101000a900473ffffffffffffffffffffffffffffffffffffffff16611081670de0b6b3a76400008561220090919063ffffffff16565b6040518363ffffffff167c0100000000000000000000000000000000000000000000000000000000028152600401808373ffffffffffffffffffffffffffffffffffffffff1673ffffffffffffffffffffffffffffffffffffffff16815260200182815260200192505050602060405180830381600087803b15801561110657600080fd5b505af115801561111a573d6000803e3d6000fd5b505050506040513d602081101561113057600080fd5b8101908080519060200190929190505050507fffac78a182cd67da1e10967888bf64ecccf0adda35d9e78d7ea99ff49cc1944d816040518082815260200191505060405180910390a150565b600660149054906101000a900460ff16151561119757600080fd5b600660009054906101000a900473ffffffffffffffffffffffffffffffffffffffff1673ffffffffffffffffffffffffffffffffffffffff163373ffffffffffffffffffffffffffffffffffffffff161415156111f357600080fd5b60008111151561120257600080fd5b806004819055507f595a30f13a69b616c4d568e2a2b7875fdfe86e4300a049953c76ee278f8f3f106004546040518082815260200191505060405180910390a150565b60085481565b6000600760008373ffffffffffffffffffffffffffffffffffffffff1673ffffffffffffffffffffffffffffffffffffffff16815260200190815260200160002060009054906101000a900460ff169050919050565b60608060076040519080825280602002602001820160405280156112d45781602001602082028038833980820191505090505b5090506008548160008151811015156112e957fe5b906020019060200201818152505060055481600181518110151561130957fe5b906020019060200201818152505060045481600281518110151561132957fe5b9060200190602002018181525050600a5481600381518110151561134957fe5b9060200190602002018181525050600b5481600481518110151561136957fe5b9060200190602002018181525050600c5481600581518110151561138957fe5b9060200190602002018181525050600d548160068151811015156113a957fe5b90602001906020020181815250508091505090565b6000600660009054906101000a900473ffffffffffffffffffffffffffffffffffffffff1673ffffffffffffffffffffffffffffffffffffffff163373ffffffffffffffffffffffffffffffffffffffff1614151561141c57600080fd5b600660149054906101000a900460ff16151561143757600080fd5b6000600660146101000a81548160ff0219169083151502179055507f7805862f689e2f13df9f062ff482ad3ad112aca9e0847911ed832e158c525b3360405160405180910390a16001905090565b60055481565b600080600660009054906101000a900473ffffffffffffffffffffffffffffffffffffffff1673ffffffffffffffffffffffffffffffffffffffff163373ffffffffffffffffffffffffffffffffffffffff161415156114ea57600080fd5b60008473ffffffffffffffffffffffffffffffffffffffff161415151561151057600080fd5b60008311151561151f57600080fd5b61153a670de0b6b3a76400008461220090919063ffffffff16565b91506115516004548361223b90919063ffffffff16565b90506115688160055461226f90919063ffffffff16565b6005541115151561157857600080fd5b6000600181111561158557fe5b600960009054906101000a900460ff1660018111156115a057fe5b14156115ea5760006115bd84600a5461225690919063ffffffff16565b101515156115ca57600080fd5b6115df83600a5461225690919063ffffffff16565b600a81905550611658565b6001808111156115f657fe5b600960009054906101000a900460ff16600181111561161157fe5b141561165757600061162e84600b5461225690919063ffffffff16565b1015151561163b57600080fd5b61165083600b5461225690919063ffffffff16565b600b819055505b5b61166d8160055461226f90919063ffffffff16565b6005819055506000809054906101000a900473ffffffffffffffffffffffffffffffffffffffff1673ffffffffffffffffffffffffffffffffffffffff166340c10f1985846040518363ffffffff167c0100000000000000000000000000000000000000000000000000000000028152600401808373ffffffffffffffffffffffffffffffffffffffff1673ffffffffffffffffffffffffffffffffffffffff16815260200182815260200192505050602060405180830381600087803b15801561173757600080fd5b505af115801561174b573d6000803e3d6000fd5b505050506040513d602081101561176157600080fd5b8101908080519060200190929190505050508373ffffffffffffffffffffffffffffffffffffffff167f69181863b43a3460f1942b976f71bd5c71682839de880ae175ffbc044c886960836040518082815260200191505060405180910390a250505050565b60015481565b600660009054906101000a900473ffffffffffffffffffffffffffffffffffffffff1673ffffffffffffffffffffffffffffffffffffffff163373ffffffffffffffffffffffffffffffffffffffff1614151561182957600080fd5b600660149054906101000a900460ff16151561184457600080fd5b61184c6120a5565b151561185757600080fd5b6000600b541115611958576000809054906101000a900473ffffffffffffffffffffffffffffffffffffffff1673ffffffffffffffffffffffffffffffffffffffff166340c10f196000600b546040518363ffffffff167c0100000000000000000000000000000000000000000000000000000000028152600401808373ffffffffffffffffffffffffffffffffffffffff16815260200182815260200192505050602060405180830381600087803b15801561191357600080fd5b505af1158015611927573d6000803e3d6000fd5b505050506040513d602081101561193d57600080fd5b81019080805190602001909291905050505060006008819055505b6000809054906101000a900473ffffffffffffffffffffffffffffffffffffffff1673ffffffffffffffffffffffffffffffffffffffff16633f4ba83a6040518163ffffffff167c0100000000000000000000000000000000000000000000000000000000028152600401602060405180830381600087803b1580156119dd57600080fd5b505af11580156119f1573d6000803e3d6000fd5b505050506040513d6020811015611a0757600080fd5b8101908080519060200190929190505050507f6c08d5fc22afc78558d47102889dc76d6b5eff2c703c6229715aebc4f522627a60405160405180910390a1565b600360009054906101000a900473ffffffffffffffffffffffffffffffffffffffff1681565b600660009054906101000a900473ffffffffffffffffffffffffffffffffffffffff1673ffffffffffffffffffffffffffffffffffffffff163373ffffffffffffffffffffffffffffffffffffffff16141515611ac957600080fd5b6000809054906101000a900473ffffffffffffffffffffffffffffffffffffffff1673ffffffffffffffffffffffffffffffffffffffff16638d1fdf2f826040518263ffffffff167c0100000000000000000000000000000000000000000000000000000000028152600401808273ffffffffffffffffffffffffffffffffffffffff1673ffffffffffffffffffffffffffffffffffffffff168152602001915050600060405180830381600087803b158015611b8557600080fd5b505af1158015611b99573d6000803e3d6000fd5b5050505050565b600660149054906101000a900460ff1681565b600660009054906101000a900473ffffffffffffffffffffffffffffffffffffffff1673ffffffffffffffffffffffffffffffffffffffff163373ffffffffffffffffffffffffffffffffffffffff16141515611c0f57600080fd5b6000600d54600c54600b54600a54010101141515611c2c57600080fd5b6000809054906101000a900473ffffffffffffffffffffffffffffffffffffffff1673ffffffffffffffffffffffffffffffffffffffff16637d64bcb46040518163ffffffff167c0100000000000000000000000000000000000000000000000000000000028152600401602060405180830381600087803b158015611cb157600080fd5b505af1158015611cc5573d6000803e3d6000fd5b505050506040513d6020811015611cdb57600080fd5b8101908080519060200190929190505050506000809054906101000a900473ffffffffffffffffffffffffffffffffffffffff1673ffffffffffffffffffffffffffffffffffffffff1663f2fde38b336040518263ffffffff167c0100000000000000000000000000000000000000000000000000000000028152600401808273ffffffffffffffffffffffffffffffffffffffff1673ffffffffffffffffffffffffffffffffffffffff168152602001915050600060405180830381600087803b158015611da957600080fd5b505af1158015611dbd573d6000803e3d6000fd5b50505050565b600c5481565b6000600660009054906101000a900473ffffffffffffffffffffffffffffffffffffffff1673ffffffffffffffffffffffffffffffffffffffff163373ffffffffffffffffffffffffffffffffffffffff16141515611e2757600080fd5b600660149054906101000a900460ff16151515611e4357600080fd5b6001600660146101000a81548160ff0219169083151502179055507f6985a02210a168e66602d3235cb6db0e70f92b3ba4d376a33c0f3d9434bff62560405160405180910390a16001905090565b600d5481565b600660009054906101000a900473ffffffffffffffffffffffffffffffffffffffff1681565b600a5481565b600660009054906101000a900473ffffffffffffffffffffffffffffffffffffffff1673ffffffffffffffffffffffffffffffffffffffff163373ffffffffffffffffffffffffffffffffffffffff16141515611f1f57600080fd5b6000809054906101000a900473ffffffffffffffffffffffffffffffffffffffff1673ffffffffffffffffffffffffffffffffffffffff166345c8b1a6826040518263ffffffff167c0100000000000000000000000000000000000000000000000000000000028152600401808273ffffffffffffffffffffffffffffffffffffffff1673ffffffffffffffffffffffffffffffffffffffff168152602001915050600060405180830381600087803b158015611fdb57600080fd5b505af1158015611fef573d6000803e3d6000fd5b5050505050565b600960009054906101000a900460ff1681565b600660009054906101000a900473ffffffffffffffffffffffffffffffffffffffff1673ffffffffffffffffffffffffffffffffffffffff163373ffffffffffffffffffffffffffffffffffffffff1614151561206557600080fd5b6000600181111561207257fe5b600960009054906101000a900460ff16600181111561208d57fe5b14151561209957600080fd5b6120a2816122f8565b50565b600080600854600554101590506120ba6123d5565b806120c25750805b91505090565b600660009054906101000a900473ffffffffffffffffffffffffffffffffffffffff1673ffffffffffffffffffffffffffffffffffffffff163373ffffffffffffffffffffffffffffffffffffffff1614151561212457600080fd5b600073ffffffffffffffffffffffffffffffffffffffff168173ffffffffffffffffffffffffffffffffffffffff1614151561219c5780600660006101000a81548173ffffffffffffffffffffffffffffffffffffffff021916908373ffffffffffffffffffffffffffffffffffffffff1602179055505b50565b600b5481565b6000809054906101000a900473ffffffffffffffffffffffffffffffffffffffff1681565b6000806008546121e53460055461226f90919063ffffffff16565b111590506121f16123e1565b80156121fa5750805b91505090565b60008060008414156122155760009150612234565b828402905082848281151561222657fe5b0414151561223057fe5b8091505b5092915050565b600080828481151561224957fe5b0490508091505092915050565b600082821115151561226457fe5b818303905092915050565b600080828401905083811015151561228357fe5b8091505092915050565b600360009054906101000a900473ffffffffffffffffffffffffffffffffffffffff1673ffffffffffffffffffffffffffffffffffffffff166108fc349081150290604051600060405180830381858888f193505050501580156122f5573d6000803e3d6000fd5b50565b600660009054906101000a900473ffffffffffffffffffffffffffffffffffffffff1673ffffffffffffffffffffffffffffffffffffffff163373ffffffffffffffffffffffffffffffffffffffff1614151561235457600080fd5b60008173ffffffffffffffffffffffffffffffffffffffff161415151561237a57600080fd5b6001600760008373ffffffffffffffffffffffffffffffffffffffff1673ffffffffffffffffffffffffffffffffffffffff16815260200190815260200160002060006101000a81548160ff02191690831515021790555050565b60006002544311905090565b6000806123ec6120a5565b1580156123fe57506123fd3361124b565b5b9050612408612416565b806124105750805b91505090565b600080600080439250600154831015801561243357506002548311155b9150600034141590508180156124465750805b9350505050905600a165627a7a72305820673bf25870d1c5bb8b80535d75fe63c94448c1eb13f0fd13f5eaf5c4c524b434002960806040526000600560006101000a81548160ff0219169083151502179055506000600560016101000a81548160ff0219169083151502179055506a52b7d2dcc80cd2e400000060065533600360006101000a81548173ffffffffffffffffffffffffffffffffffffffff021916908373ffffffffffffffffffffffffffffffffffffffff160217905550611e4f806100996000396000f300608060405260043610610128576000357c0100000000000000000000000000000000000000000000000000000000900463ffffffff16806305d2035b1461012d57806306fdde031461015c578063095ea7b3146101ec57806318160ddd1461025157806323b872dd1461027c578063313ce567146103015780633f4ba83a1461033257806340c10f191461036157806342966c68146103c657806345c8b1a6146103f35780635c975abb14610436578063661884631461046557806370a08231146104ca5780637d64bcb4146105215780638456cb59146105505780638d1fdf2f1461057f5780638da5cb5b146105c257806395d89b4114610619578063a9059cbb146106a9578063d73dd6231461070e578063dd62ed3e14610773578063f2fde38b146107ea575b600080fd5b34801561013957600080fd5b5061014261082d565b604051808215151515815260200191505060405180910390f35b34801561016857600080fd5b50610171610840565b6040518080602001828103825283818151815260200191508051906020019080838360005b838110156101b1578082015181840152602081019050610196565b50505050905090810190601f1680156101de5780820380516001836020036101000a031916815260200191505b509250505060405180910390f35b3480156101f857600080fd5b50610237600480360381019080803573ffffffffffffffffffffffffffffffffffffffff16906020019092919080359060200190929190505050610879565b604051808215151515815260200191505060405180910390f35b34801561025d57600080fd5b5061026661096b565b6040518082815260200191505060405180910390f35b34801561028857600080fd5b506102e7600480360381019080803573ffffffffffffffffffffffffffffffffffffffff169060200190929190803573ffffffffffffffffffffffffffffffffffffffff16906020019092919080359060200190929190505050610971565b604051808215151515815260200191505060405180910390f35b34801561030d57600080fd5b506103166109a3565b604051808260ff1660ff16815260200191505060405180910390f35b34801561033e57600080fd5b506103476109a8565b604051808215151515815260200191505060405180910390f35b34801561036d57600080fd5b506103ac600480360381019080803573ffffffffffffffffffffffffffffffffffffffff16906020019092919080359060200190929190505050610a6f565b604051808215151515815260200191505060405180910390f35b3480156103d257600080fd5b506103f160048036038101908080359060200190929190505050610bf1565b005b3480156103ff57600080fd5b50610434600480360381019080803573ffffffffffffffffffffffffffffffffffffffff169060200190929190505050610d06565b005b34801561044257600080fd5b5061044b610de3565b604051808215151515815260200191505060405180910390f35b34801561047157600080fd5b506104b0600480360381019080803573ffffffffffffffffffffffffffffffffffffffff16906020019092919080359060200190929190505050610df6565b604051808215151515815260200191505060405180910390f35b3480156104d657600080fd5b5061050b600480360381019080803573ffffffffffffffffffffffffffffffffffffffff169060200190929190505050611087565b6040518082815260200191505060405180910390f35b34801561052d57600080fd5b506105366110d0565b604051808215151515815260200191505060405180910390f35b34801561055c57600080fd5b5061056561117c565b604051808215151515815260200191505060405180910390f35b34801561058b57600080fd5b506105c0600480360381019080803573ffffffffffffffffffffffffffffffffffffffff169060200190929190505050611244565b005b3480156105ce57600080fd5b506105d7611321565b604051808273ffffffffffffffffffffffffffffffffffffffff1673ffffffffffffffffffffffffffffffffffffffff16815260200191505060405180910390f35b34801561062557600080fd5b5061062e611347565b6040518080602001828103825283818151815260200191508051906020019080838360005b8381101561066e578082015181840152602081019050610653565b50505050905090810190601f16801561069b5780820380516001836020036101000a031916815260200191505b509250505060405180910390f35b3480156106b557600080fd5b506106f4600480360381019080803573ffffffffffffffffffffffffffffffffffffffff16906020019092919080359060200190929190505050611380565b604051808215151515815260200191505060405180910390f35b34801561071a57600080fd5b50610759600480360381019080803573ffffffffffffffffffffffffffffffffffffffff169060200190929190803590602001909291905050506113b0565b604051808215151515815260200191505060405180910390f35b34801561077f57600080fd5b506107d4600480360381019080803573ffffffffffffffffffffffffffffffffffffffff169060200190929190803573ffffffffffffffffffffffffffffffffffffffff1690602001909291905050506115ac565b6040518082815260200191505060405180910390f35b3480156107f657600080fd5b5061082b600480360381019080803573ffffffffffffffffffffffffffffffffffffffff169060200190929190505050611633565b005b600560019054906101000a900460ff1681565b6040805190810160405280600d81526020017f4b61707974616c20546f6b656e0000000000000000000000000000000000000081525081565b600081600260003373ffffffffffffffffffffffffffffffffffffffff1673ffffffffffffffffffffffffffffffffffffffff16815260200190815260200160002060008573ffffffffffffffffffffffffffffffffffffffff1673ffffffffffffffffffffffffffffffffffffffff168152602001908152602001600020819055508273ffffffffffffffffffffffffffffffffffffffff163373ffffffffffffffffffffffffffffffffffffffff167f8c5be1e5ebec7d5bd14f71427d1e84f3dd0314c0f7b2291e5b200ac8c7c3b925846040518082815260200191505060405180910390a36001905092915050565b60065481565b6000600560009054906101000a900460ff1615151561098f57600080fd5b61099a84848461170a565b90509392505050565b601281565b6000600360009054906101000a900473ffffffffffffffffffffffffffffffffffffffff1673ffffffffffffffffffffffffffffffffffffffff163373ffffffffffffffffffffffffffffffffffffffff16141515610a0657600080fd5b600560009054906101000a900460ff161515610a2157600080fd5b6000600560006101000a81548160ff0219169083151502179055507f7805862f689e2f13df9f062ff482ad3ad112aca9e0847911ed832e158c525b3360405160405180910390a16001905090565b6000600360009054906101000a900473ffffffffffffffffffffffffffffffffffffffff1673ffffffffffffffffffffffffffffffffffffffff163373ffffffffffffffffffffffffffffffffffffffff16141515610acd57600080fd5b600560019054906101000a900460ff16151515610ae957600080fd5b610afe826000546117cf90919063ffffffff16565b600081905550610b5682600160008673ffffffffffffffffffffffffffffffffffffffff1673ffffffffffffffffffffffffffffffffffffffff168152602001908152602001600020546117cf90919063ffffffff16565b600160008573ffffffffffffffffffffffffffffffffffffffff1673ffffffffffffffffffffffffffffffffffffffff168152602001908152602001600020819055508273ffffffffffffffffffffffffffffffffffffffff167f0f6798a560793a54c3bcfe86a93cde1e73087d944c0ea20544137d4121396885836040518082815260200191505060405180910390a26001905092915050565b60008082111515610c0157600080fd5b339050610c5682600160008473ffffffffffffffffffffffffffffffffffffffff1673ffffffffffffffffffffffffffffffffffffffff168152602001908152602001600020546117ed90919063ffffffff16565b600160008373ffffffffffffffffffffffffffffffffffffffff1673ffffffffffffffffffffffffffffffffffffffff16815260200190815260200160002081905550610cae826000546117ed90919063ffffffff16565b6000819055508073ffffffffffffffffffffffffffffffffffffffff167fcc16f5dbb4873280815c1ee09dbd06736cffcc184412cf7a71a0fdb75d397ca5836040518082815260200191505060405180910390a25050565b600360009054906101000a900473ffffffffffffffffffffffffffffffffffffffff1673ffffffffffffffffffffffffffffffffffffffff163373ffffffffffffffffffffffffffffffffffffffff16141515610d6257600080fd5b60008173ffffffffffffffffffffffffffffffffffffffff1614151515610d8857600080fd5b6000600460008373ffffffffffffffffffffffffffffffffffffffff1673ffffffffffffffffffffffffffffffffffffffff16815260200190815260200160002060006101000a81548160ff02191690831515021790555050565b600560009054906101000a900460ff1681565b600080600260003373ffffffffffffffffffffffffffffffffffffffff1673ffffffffffffffffffffffffffffffffffffffff16815260200190815260200160002060008573ffffffffffffffffffffffffffffffffffffffff1673ffffffffffffffffffffffffffffffffffffffff16815260200190815260200160002054905080831115610f07576000600260003373ffffffffffffffffffffffffffffffffffffffff1673ffffffffffffffffffffffffffffffffffffffff16815260200190815260200160002060008673ffffffffffffffffffffffffffffffffffffffff1673ffffffffffffffffffffffffffffffffffffffff16815260200190815260200160002081905550610f9b565b610f1a83826117ed90919063ffffffff16565b600260003373ffffffffffffffffffffffffffffffffffffffff1673ffffffffffffffffffffffffffffffffffffffff16815260200190815260200160002060008673ffffffffffffffffffffffffffffffffffffffff1673ffffffffffffffffffffffffffffffffffffffff168152602001908152602001600020819055505b8373ffffffffffffffffffffffffffffffffffffffff163373ffffffffffffffffffffffffffffffffffffffff167f8c5be1e5ebec7d5bd14f71427d1e84f3dd0314c0f7b2291e5b200ac8c7c3b925600260003373ffffffffffffffffffffffffffffffffffffffff1673ffffffffffffffffffffffffffffffffffffffff16815260200190815260200160002060008873ffffffffffffffffffffffffffffffffffffffff1673ffffffffffffffffffffffffffffffffffffffff168152602001908152602001600020546040518082815260200191505060405180910390a3600191505092915050565b6000600160008373ffffffffffffffffffffffffffffffffffffffff1673ffffffffffffffffffffffffffffffffffffffff168152602001908152602001600020549050919050565b6000600360009054906101000a900473ffffffffffffffffffffffffffffffffffffffff1673ffffffffffffffffffffffffffffffffffffffff163373ffffffffffffffffffffffffffffffffffffffff1614151561112e57600080fd5b6001600560016101000a81548160ff0219169083151502179055507fae5184fba832cb2b1f702aca6117b8d265eaf03ad33eb133f19dde0f5920fa0860405160405180910390a16001905090565b6000600360009054906101000a900473ffffffffffffffffffffffffffffffffffffffff1673ffffffffffffffffffffffffffffffffffffffff163373ffffffffffffffffffffffffffffffffffffffff161415156111da57600080fd5b600560009054906101000a900460ff161515156111f657600080fd5b6001600560006101000a81548160ff0219169083151502179055507f6985a02210a168e66602d3235cb6db0e70f92b3ba4d376a33c0f3d9434bff62560405160405180910390a16001905090565b600360009054906101000a900473ffffffffffffffffffffffffffffffffffffffff1673ffffffffffffffffffffffffffffffffffffffff163373ffffffffffffffffffffffffffffffffffffffff161415156112a057600080fd5b60008173ffffffffffffffffffffffffffffffffffffffff16141515156112c657600080fd5b6001600460008373ffffffffffffffffffffffffffffffffffffffff1673ffffffffffffffffffffffffffffffffffffffff16815260200190815260200160002060006101000a81548160ff02191690831515021790555050565b600360009054906101000a900473ffffffffffffffffffffffffffffffffffffffff1681565b6040805190810160405280600381526020017f4b594c000000000000000000000000000000000000000000000000000000000081525081565b6000600560009054906101000a900460ff1615151561139e57600080fd5b6113a88383611806565b905092915050565b600061144182600260003373ffffffffffffffffffffffffffffffffffffffff1673ffffffffffffffffffffffffffffffffffffffff16815260200190815260200160002060008673ffffffffffffffffffffffffffffffffffffffff1673ffffffffffffffffffffffffffffffffffffffff168152602001908152602001600020546117cf90919063ffffffff16565b600260003373ffffffffffffffffffffffffffffffffffffffff1673ffffffffffffffffffffffffffffffffffffffff16815260200190815260200160002060008573ffffffffffffffffffffffffffffffffffffffff1673ffffffffffffffffffffffffffffffffffffffff168152602001908152602001600020819055508273ffffffffffffffffffffffffffffffffffffffff163373ffffffffffffffffffffffffffffffffffffffff167f8c5be1e5ebec7d5bd14f71427d1e84f3dd0314c0f7b2291e5b200ac8c7c3b925600260003373ffffffffffffffffffffffffffffffffffffffff1673ffffffffffffffffffffffffffffffffffffffff16815260200190815260200160002060008773ffffffffffffffffffffffffffffffffffffffff1673ffffffffffffffffffffffffffffffffffffffff168152602001908152602001600020546040518082815260200191505060405180910390a36001905092915050565b6000600260008473ffffffffffffffffffffffffffffffffffffffff1673ffffffffffffffffffffffffffffffffffffffff16815260200190815260200160002060008373ffffffffffffffffffffffffffffffffffffffff1673ffffffffffffffffffffffffffffffffffffffff16815260200190815260200160002054905092915050565b600360009054906101000a900473ffffffffffffffffffffffffffffffffffffffff1673ffffffffffffffffffffffffffffffffffffffff163373ffffffffffffffffffffffffffffffffffffffff1614151561168f57600080fd5b600073ffffffffffffffffffffffffffffffffffffffff168173ffffffffffffffffffffffffffffffffffffffff161415156117075780600360006101000a81548173ffffffffffffffffffffffffffffffffffffffff021916908373ffffffffffffffffffffffffffffffffffffffff1602179055505b50565b6000600460003373ffffffffffffffffffffffffffffffffffffffff1673ffffffffffffffffffffffffffffffffffffffff16815260200190815260200160002060009054906101000a900460ff161580156117b05750600460008473ffffffffffffffffffffffffffffffffffffffff1673ffffffffffffffffffffffffffffffffffffffff16815260200190815260200160002060009054906101000a900460ff16155b15156117bb57600080fd5b6117c68484846118c9565b90509392505050565b60008082840190508381101515156117e357fe5b8091505092915050565b60008282111515156117fb57fe5b818303905092915050565b6000600460003373ffffffffffffffffffffffffffffffffffffffff1673ffffffffffffffffffffffffffffffffffffffff16815260200190815260200160002060009054906101000a900460ff161580156118ac5750600460008473ffffffffffffffffffffffffffffffffffffffff1673ffffffffffffffffffffffffffffffffffffffff16815260200190815260200160002060009054906101000a900460ff16155b15156118b757600080fd5b6118c18383611c88565b905092915050565b60008073ffffffffffffffffffffffffffffffffffffffff168373ffffffffffffffffffffffffffffffffffffffff161415151561190657600080fd5b600160008573ffffffffffffffffffffffffffffffffffffffff1673ffffffffffffffffffffffffffffffffffffffff16815260200190815260200160002054821115151561195457600080fd5b600260008573ffffffffffffffffffffffffffffffffffffffff1673ffffffffffffffffffffffffffffffffffffffff16815260200190815260200160002060003373ffffffffffffffffffffffffffffffffffffffff1673ffffffffffffffffffffffffffffffffffffffff1681526020019081526020016000205482111515156119df57600080fd5b611a3182600160008773ffffffffffffffffffffffffffffffffffffffff1673ffffffffffffffffffffffffffffffffffffffff168152602001908152602001600020546117ed90919063ffffffff16565b600160008673ffffffffffffffffffffffffffffffffffffffff1673ffffffffffffffffffffffffffffffffffffffff16815260200190815260200160002081905550611ac682600160008673ffffffffffffffffffffffffffffffffffffffff1673ffffffffffffffffffffffffffffffffffffffff168152602001908152602001600020546117cf90919063ffffffff16565b600160008573ffffffffffffffffffffffffffffffffffffffff1673ffffffffffffffffffffffffffffffffffffffff16815260200190815260200160002081905550611b9882600260008773ffffffffffffffffffffffffffffffffffffffff1673ffffffffffffffffffffffffffffffffffffffff16815260200190815260200160002060003373ffffffffffffffffffffffffffffffffffffffff1673ffffffffffffffffffffffffffffffffffffffff168152602001908152602001600020546117ed90919063ffffffff16565b600260008673ffffffffffffffffffffffffffffffffffffffff1673ffffffffffffffffffffffffffffffffffffffff16815260200190815260200160002060003373ffffffffffffffffffffffffffffffffffffffff1673ffffffffffffffffffffffffffffffffffffffff168152602001908152602001600020819055508273ffffffffffffffffffffffffffffffffffffffff168473ffffffffffffffffffffffffffffffffffffffff167fddf252ad1be2c89b69c2b068fc378daa952ba7f163c4a11628f55a4df523b3ef846040518082815260200191505060405180910390a3600190509392505050565b6000611cdc82600160003373ffffffffffffffffffffffffffffffffffffffff1673ffffffffffffffffffffffffffffffffffffffff168152602001908152602001600020546117ed90919063ffffffff16565b600160003373ffffffffffffffffffffffffffffffffffffffff1673ffffffffffffffffffffffffffffffffffffffff16815260200190815260200160002081905550611d7182600160008673ffffffffffffffffffffffffffffffffffffffff1673ffffffffffffffffffffffffffffffffffffffff168152602001908152602001600020546117cf90919063ffffffff16565b600160008573ffffffffffffffffffffffffffffffffffffffff1673ffffffffffffffffffffffffffffffffffffffff168152602001908152602001600020819055508273ffffffffffffffffffffffffffffffffffffffff163373ffffffffffffffffffffffffffffffffffffffff167fddf252ad1be2c89b69c2b068fc378daa952ba7f163c4a11628f55a4df523b3ef846040518082815260200191505060405180910390a360019050929150505600a165627a7a72305820869bca90933e51c4e422f995e6ecdf0a9211166cb6bdcdab3a873538f68768a10029",
  "source": "pragma solidity ^0.4.22;\r\n\r\nimport \"./Crowdsale.sol\";\r\n\r\ncontract KYLCrowdsale is Pausable, WhitelistedCrowdsale, CappedCrowdsale{\r\n    enum stages {pICO, ICO}\r\n\r\n    event PreCrowdsaleStarted();\r\n    event CrowdsaleStarted();\r\n    event CrowdsaleFinished();\r\n    event RateChanged(uint256 rate);\r\n\r\n    event ExternalPurchase(address indexed who, uint256 tokens);\r\n    event AirDroppedTokens(address indexed who, uint256 tokens);\r\n    event TeamMintedTokens(uint256 tokens);\r\n\r\n    stages public stage;\r\n\r\n    uint256 public softCap;\r\n    uint256 public hardCap;\r\n    uint256 public teamCap;\r\n    uint256 public airdropCap;\r\n\r\n    /**\r\n    * @dev function: constructor\r\n    * @param _startBlock at what block number, the crowdsale should begin\r\n    * @param _endBlock at what block number, the crowdsale should stop\r\n    * @param _fixRate how many tokens gives 1 ether\r\n    * @param _cap crowdsale capitalization in ether\r\n    * @param wallet address which collects received ether\r\n     */\r\n    constructor(\r\n        uint256 _startBlock, uint256 _endBlock, \r\n        uint256 _fixRate, uint256 _cap,\r\n        address wallet\r\n    )\r\n        public \r\n        Crowdsale(_startBlock, _endBlock, _fixRate, wallet)\r\n        WhitelistedCrowdsale()\r\n        CappedCrowdsale(_cap * (1 ether))\r\n    {\r\n        stage = stages.pICO;\r\n\r\n        softCap = 15000000;\r\n        hardCap = 50000000;\r\n        teamCap = 30000000;\r\n        airdropCap = 5000000;\r\n\r\n        KYLToken(token).pause();\r\n\r\n        emit PreCrowdsaleStarted();\r\n    }\r\n\r\n    /**\r\n    * @dev overriden function\r\n    * @notice creates a mintable compatible token\r\n    * @return the custom token\r\n    */\r\n    function createTokenContract() internal returns (MintableToken) {\r\n        return new KYLToken();\r\n    }\r\n\r\n    /**\r\n    * @dev overriden function\r\n    * @notice owner must be the caller, stage should be preICO\r\n    * @notice adds an address to the early investors whitelist\r\n    */\r\n    function addToWhitelist(address buyer) public onlyOwner{\r\n        require(stage == stages.pICO);\r\n        super.addToWhitelist(buyer);\r\n    }\r\n\r\n    /**\r\n    * @notice owner must be the caller, state should be paused\r\n    * @notice sets a custom rate\r\n    */\r\n    function setRate(uint256 _rate) public whenPaused onlyOwner{\r\n        require(_rate > 0);\r\n        rate = _rate;\r\n        emit RateChanged(rate);\r\n    }\r\n\r\n    /**\r\n    * @dev overriden function\r\n    * @notice crowdsale state should be unpaused\r\n    * @notice a investor can call this function to buy tokens\r\n    * @param who the address where tokens are forwarded\r\n    */\r\n    function buyTokens(address who) public whenNotPaused payable{\r\n        require(who != 0x0);\r\n        require(super.validPurchase());\r\n\r\n        uint256 value = msg.value;\r\n        uint256 tokens = value.mul(rate);\r\n\r\n        if(stage == stages.pICO){\r\n            require(super.isWhitelisted(who));\r\n            require(softCap.sub(tokens.div(1 ether)) >= 0);        \r\n            softCap = softCap.sub(tokens.div(1 ether));\r\n        }else if(stage == stages.ICO){\r\n            require(hardCap.sub(tokens.div(1 ether)) >= 0);\r\n            hardCap = hardCap.sub(tokens.div(1 ether));\r\n        }\r\n        \r\n        weiRaised = weiRaised.add(value);\r\n        token.mint(who, tokens);\r\n        emit TokenPurchase(msg.sender, who, value, tokens);\r\n        \r\n        super.forwardFunds();\r\n    }\r\n\r\n    /**\r\n    * @notice crowdsale state should be unpaused; only callable during preICO, ICO\r\n    * @notice owner can use this function to handle external token purchases\r\n    * @param who the address where tokens are forwarded\r\n    * @param tokens the amount of tokens to be forwarded in KYL's\r\n    */\r\n    function mintTo(address who, uint256 tokens) public onlyOwner{\r\n        require(who != 0x0);\r\n        require(tokens > 0);\r\n\r\n        uint256 total = tokens.mul(1 ether);\r\n        uint256 value = total.div(rate);\r\n        \r\n        require(weiRaised <= weiRaised.add(value));\r\n        if(stage == stages.pICO){\r\n            require(softCap.sub(tokens) >= 0);\r\n            softCap = softCap.sub(tokens);\r\n        }else if(stage == stages.ICO){\r\n            require(hardCap.sub(tokens) >= 0);\r\n            hardCap = hardCap.sub(tokens);\r\n        }\r\n\r\n        weiRaised = weiRaised.add(value);\r\n        token.mint(who, total);\r\n        emit ExternalPurchase(who, total);\r\n    }\r\n\r\n    /**\r\n    * @notice callable as long as there are enough tokens to be airdropped\r\n    * @notice owner can use this function to handle token airdrops\r\n    * @param who the address where tokens are forwarded\r\n    * @param tokens the amount of tokens to be forwarded in KYL's\r\n    */\r\n    function airDrop(address who, uint256 tokens) public onlyOwner{\r\n        require(who != 0x0);\r\n        require(tokens > 0);\r\n        require(airdropCap.sub(tokens) >= 0);\r\n\r\n        airdropCap = airdropCap.sub(tokens);\r\n\r\n        token.mint(who, tokens.mul(1 ether));\r\n        emit AirDroppedTokens(who, tokens);\r\n    }\r\n\r\n    /**\r\n    * @notice callable when state is not paused, only by owner\r\n    * @notice ends preICO, if SC is not met, remaining tokens are added to HC\r\n    * @notice sets crowdsale state to unpaused\r\n    * @param _rate at what rate public sale should start\r\n     */\r\n    function endPreICO(uint256 _rate) public onlyOwner whenPaused{\r\n        require(stage == stages.pICO);\r\n\r\n        stage = stages.ICO;\r\n        hardCap = hardCap.add(softCap);\r\n        softCap = 0;\r\n        rate = _rate;\r\n\r\n        super.unpause();\r\n        emit CrowdsaleStarted();\r\n    }\r\n\r\n    /**\r\n    * @notice callable when state is paused, only by owner, after end block has been reached\r\n    * @notice ends crowdsale, if HC is not met, remaining tokens are burned\r\n    * @notice sets token state to unpaused\r\n     */\r\n    function finalize() public onlyOwner whenPaused{\r\n        require(hasEnded());\r\n        \r\n        if(hardCap > 0){\r\n            token.mint(0x0, hardCap);\r\n            cap = 0;\r\n        }\r\n\r\n        KYLToken(token).unpause();\r\n        emit CrowdsaleFinished();\r\n    }\r\n\r\n    /**\r\n    * @notice freeze tokens, in case an address is compromised\r\n    */\r\n    function freezeTokens(address who) public onlyOwner{\r\n        KYLToken(token).freeze(who);\r\n    }\r\n\r\n    /**\r\n    * @notice unfreeze tokens\r\n    */\r\n    function unfreezeTokens(address who) public onlyOwner{\r\n        KYLToken(token).unfreeze(who);\r\n    }\r\n\r\n    /**\r\n    * @notice callable after crowdsale has ended only by owner\r\n    * @notice mint tokens for foundation\r\n    */\r\n    function teamMint(uint256 tokens) public onlyOwner{\r\n        require(tokens > 0);\r\n        require(teamCap.sub(tokens) >= 0);\r\n        require(hasEnded());\r\n\r\n        teamCap = teamCap.sub(tokens);\r\n        token.mint(wallet, tokens.mul(1 ether));\r\n\r\n        emit TeamMintedTokens(tokens);\r\n    }\r\n\r\n    function finalizeAll() public onlyOwner{\r\n        require(softCap + hardCap + teamCap + airdropCap == 0);\r\n        KYLToken(token).finishMinting();\r\n        KYLToken(token).transferOwnership(msg.sender);\r\n    }\r\n    \r\n\t/**\r\n\t* @dev brings AIO data view\r\n\t*/\r\n    function getData() public view returns(uint[]){\r\n        uint[] memory data = new uint[](7);\r\n        data[0] = cap;\r\n        data[1] = weiRaised;\r\n        data[2] = rate;\r\n        data[3] = softCap;\r\n        data[4] = hardCap;\r\n        data[5] = teamCap;\r\n        data[6] = airdropCap;\r\n        return data;\r\n    }\r\n}",
  "sourcePath": "C:\\Users\\Alex\\Desktop\\KAPYTAL\\KYL ERC20\\contracts\\KYLCrowdsale.sol",
  "compiler": {
    "name": "solc",
    "version": "0.4.24+commit.e67f0147.Emscripten.clang"
  },
  "schemaVersion": "2.0.1",
  "updatedAt": "2018-09-08T05:13:44.894Z"
}