{
  "contractName": "KYLCrowdsale",
  "abi": [
    {
      "constant": true,
      "inputs": [],
      "name": "endBlock",
      "outputs": [
        {
          "name": "",
          "type": "uint256"
        }
      ],
      "payable": false,
      "stateMutability": "view",
      "type": "function"
    },
    {
      "constant": true,
      "inputs": [],
      "name": "rate",
      "outputs": [
        {
          "name": "",
          "type": "uint256"
        }
      ],
      "payable": false,
      "stateMutability": "view",
      "type": "function"
    },
    {
      "constant": true,
      "inputs": [],
      "name": "cap",
      "outputs": [
        {
          "name": "",
          "type": "uint256"
        }
      ],
      "payable": false,
      "stateMutability": "view",
      "type": "function"
    },
    {
      "constant": true,
      "inputs": [
        {
          "name": "buyer",
          "type": "address"
        }
      ],
      "name": "isWhitelisted",
      "outputs": [
        {
          "name": "",
          "type": "bool"
        }
      ],
      "payable": false,
      "stateMutability": "view",
      "type": "function"
    },
    {
      "constant": false,
      "inputs": [],
      "name": "unpause",
      "outputs": [
        {
          "name": "",
          "type": "bool"
        }
      ],
      "payable": false,
      "stateMutability": "nonpayable",
      "type": "function"
    },
    {
      "constant": true,
      "inputs": [],
      "name": "weiRaised",
      "outputs": [
        {
          "name": "",
          "type": "uint256"
        }
      ],
      "payable": false,
      "stateMutability": "view",
      "type": "function"
    },
    {
      "constant": true,
      "inputs": [],
      "name": "startBlock",
      "outputs": [
        {
          "name": "",
          "type": "uint256"
        }
      ],
      "payable": false,
      "stateMutability": "view",
      "type": "function"
    },
    {
      "constant": true,
      "inputs": [],
      "name": "wallet",
      "outputs": [
        {
          "name": "",
          "type": "address"
        }
      ],
      "payable": false,
      "stateMutability": "view",
      "type": "function"
    },
    {
      "constant": true,
      "inputs": [],
      "name": "paused",
      "outputs": [
        {
          "name": "",
          "type": "bool"
        }
      ],
      "payable": false,
      "stateMutability": "view",
      "type": "function"
    },
    {
      "constant": true,
      "inputs": [],
      "name": "teamCap",
      "outputs": [
        {
          "name": "",
          "type": "uint256"
        }
      ],
      "payable": false,
      "stateMutability": "view",
      "type": "function"
    },
    {
      "constant": false,
      "inputs": [],
      "name": "pause",
      "outputs": [
        {
          "name": "",
          "type": "bool"
        }
      ],
      "payable": false,
      "stateMutability": "nonpayable",
      "type": "function"
    },
    {
      "constant": true,
      "inputs": [],
      "name": "airdropCap",
      "outputs": [
        {
          "name": "",
          "type": "uint256"
        }
      ],
      "payable": false,
      "stateMutability": "view",
      "type": "function"
    },
    {
      "constant": true,
      "inputs": [],
      "name": "owner",
      "outputs": [
        {
          "name": "",
          "type": "address"
        }
      ],
      "payable": false,
      "stateMutability": "view",
      "type": "function"
    },
    {
      "constant": true,
      "inputs": [],
      "name": "softCap",
      "outputs": [
        {
          "name": "",
          "type": "uint256"
        }
      ],
      "payable": false,
      "stateMutability": "view",
      "type": "function"
    },
    {
      "constant": true,
      "inputs": [],
      "name": "stage",
      "outputs": [
        {
          "name": "",
          "type": "uint8"
        }
      ],
      "payable": false,
      "stateMutability": "view",
      "type": "function"
    },
    {
      "constant": true,
      "inputs": [],
      "name": "hasEnded",
      "outputs": [
        {
          "name": "",
          "type": "bool"
        }
      ],
      "payable": false,
      "stateMutability": "view",
      "type": "function"
    },
    {
      "constant": false,
      "inputs": [
        {
          "name": "newOwner",
          "type": "address"
        }
      ],
      "name": "transferOwnership",
      "outputs": [],
      "payable": false,
      "stateMutability": "nonpayable",
      "type": "function"
    },
    {
      "constant": true,
      "inputs": [],
      "name": "hardCap",
      "outputs": [
        {
          "name": "",
          "type": "uint256"
        }
      ],
      "payable": false,
      "stateMutability": "view",
      "type": "function"
    },
    {
      "constant": true,
      "inputs": [],
      "name": "token",
      "outputs": [
        {
          "name": "",
          "type": "address"
        }
      ],
      "payable": false,
      "stateMutability": "view",
      "type": "function"
    },
    {
      "inputs": [
        {
          "name": "_startBlock",
          "type": "uint256"
        },
        {
          "name": "_endBlock",
          "type": "uint256"
        },
        {
          "name": "_fixRate",
          "type": "uint256"
        },
        {
          "name": "wallet",
          "type": "address"
        }
      ],
      "payable": false,
      "stateMutability": "nonpayable",
      "type": "constructor"
    },
    {
      "payable": true,
      "stateMutability": "payable",
      "type": "fallback"
    },
    {
      "anonymous": false,
      "inputs": [],
      "name": "PreCrowdsaleStarted",
      "type": "event"
    },
    {
      "anonymous": false,
      "inputs": [],
      "name": "CrowdsaleStarted",
      "type": "event"
    },
    {
      "anonymous": false,
      "inputs": [],
      "name": "CrowdsaleFinished",
      "type": "event"
    },
    {
      "anonymous": false,
      "inputs": [
        {
          "indexed": false,
          "name": "rate",
          "type": "uint256"
        }
      ],
      "name": "RateChanged",
      "type": "event"
    },
    {
      "anonymous": false,
      "inputs": [
        {
          "indexed": true,
          "name": "who",
          "type": "address"
        },
        {
          "indexed": false,
          "name": "tokens",
          "type": "uint256"
        }
      ],
      "name": "ExternalPurchase",
      "type": "event"
    },
    {
      "anonymous": false,
      "inputs": [
        {
          "indexed": true,
          "name": "who",
          "type": "address"
        },
        {
          "indexed": false,
          "name": "tokens",
          "type": "uint256"
        }
      ],
      "name": "AirDroppedTokens",
      "type": "event"
    },
    {
      "anonymous": false,
      "inputs": [
        {
          "indexed": false,
          "name": "tokens",
          "type": "uint256"
        }
      ],
      "name": "TeamMintedTokens",
      "type": "event"
    },
    {
      "anonymous": false,
      "inputs": [],
      "name": "Pause",
      "type": "event"
    },
    {
      "anonymous": false,
      "inputs": [],
      "name": "Unpause",
      "type": "event"
    },
    {
      "anonymous": false,
      "inputs": [
        {
          "indexed": true,
          "name": "purchaser",
          "type": "address"
        },
        {
          "indexed": true,
          "name": "beneficiary",
          "type": "address"
        },
        {
          "indexed": false,
          "name": "value",
          "type": "uint256"
        },
        {
          "indexed": false,
          "name": "amount",
          "type": "uint256"
        }
      ],
      "name": "TokenPurchase",
      "type": "event"
    },
    {
      "constant": false,
      "inputs": [
        {
          "name": "buyer",
          "type": "address"
        }
      ],
      "name": "addToWhitelist",
      "outputs": [],
      "payable": false,
      "stateMutability": "nonpayable",
      "type": "function"
    },
    {
      "constant": false,
      "inputs": [
        {
          "name": "_rate",
          "type": "uint256"
        }
      ],
      "name": "setRate",
      "outputs": [],
      "payable": false,
      "stateMutability": "nonpayable",
      "type": "function"
    },
    {
      "constant": false,
      "inputs": [
        {
          "name": "who",
          "type": "address"
        }
      ],
      "name": "buyTokens",
      "outputs": [],
      "payable": true,
      "stateMutability": "payable",
      "type": "function"
    },
    {
      "constant": false,
      "inputs": [
        {
          "name": "who",
          "type": "address"
        },
        {
          "name": "tokens",
          "type": "uint256"
        }
      ],
      "name": "mintTo",
      "outputs": [],
      "payable": false,
      "stateMutability": "nonpayable",
      "type": "function"
    },
    {
      "constant": false,
      "inputs": [
        {
          "name": "who",
          "type": "address"
        },
        {
          "name": "tokens",
          "type": "uint256"
        }
      ],
      "name": "airDrop",
      "outputs": [],
      "payable": false,
      "stateMutability": "nonpayable",
      "type": "function"
    },
    {
      "constant": false,
      "inputs": [
        {
          "name": "_rate",
          "type": "uint256"
        }
      ],
      "name": "endPreICO",
      "outputs": [],
      "payable": false,
      "stateMutability": "nonpayable",
      "type": "function"
    },
    {
      "constant": false,
      "inputs": [],
      "name": "finalize",
      "outputs": [],
      "payable": false,
      "stateMutability": "nonpayable",
      "type": "function"
    },
    {
      "constant": false,
      "inputs": [
        {
          "name": "who",
          "type": "address"
        }
      ],
      "name": "freezeTokens",
      "outputs": [],
      "payable": false,
      "stateMutability": "nonpayable",
      "type": "function"
    },
    {
      "constant": false,
      "inputs": [
        {
          "name": "who",
          "type": "address"
        }
      ],
      "name": "unfreezeTokens",
      "outputs": [],
      "payable": false,
      "stateMutability": "nonpayable",
      "type": "function"
    },
    {
      "constant": false,
      "inputs": [
        {
          "name": "tokens",
          "type": "uint256"
        }
      ],
      "name": "teamMint",
      "outputs": [],
      "payable": false,
      "stateMutability": "nonpayable",
      "type": "function"
    }
  ],
  "bytecode": "0x60806040526000600660146101000a81548160ff0219169083151502179055503480156200002c57600080fd5b50604051608080620044948339810180604052810190808051906020019092919080519060200190929190805190602001909291908051906020019092919050505069081ef52994fde6780000848484848383101515156200008d57600080fd5b6000821115156200009d57600080fd5b60008173ffffffffffffffffffffffffffffffffffffffff1614151515620000c457600080fd5b620000dd62000318640100000000026401000000009004565b6000806101000a81548173ffffffffffffffffffffffffffffffffffffffff021916908373ffffffffffffffffffffffffffffffffffffffff16021790555083600181905550826002819055508160048190555080600360006101000a81548173ffffffffffffffffffffffffffffffffffffffff021916908373ffffffffffffffffffffffffffffffffffffffff1602179055505050505033600660006101000a81548173ffffffffffffffffffffffffffffffffffffffff021916908373ffffffffffffffffffffffffffffffffffffffff160217905550600081111515620001c757600080fd5b80600881905550506000600960006101000a81548160ff02191690836001811115620001ef57fe5b021790555062e4e1c0600a819055506302faf080600b819055506301c9c380600c81905550624c4b40600d819055506000809054906101000a900473ffffffffffffffffffffffffffffffffffffffff1673ffffffffffffffffffffffffffffffffffffffff16638456cb596040518163ffffffff167c0100000000000000000000000000000000000000000000000000000000028152600401602060405180830381600087803b158015620002a457600080fd5b505af1158015620002b9573d6000803e3d6000fd5b505050506040513d6020811015620002d057600080fd5b8101908080519060200190929190505050507fb1dd97be97eb6bdaea11005c9af4267f88b6b8031dece9c50460b39cacdce84360405160405180910390a15050505062000358565b60006200032462000347565b604051809103906000f08015801562000341573d6000803e3d6000fd5b50905090565b6040516119788062002b1c83390190565b6127b480620003686000396000f300608060405260043610610175576000357c0100000000000000000000000000000000000000000000000000000000900463ffffffff168063045f785014610180578063083c6323146101cd5780631e52d830146101f85780632c4e722e146102255780632fbba1151461025057806334fcf4371461027d578063355274ea146102aa5780633af32abf146102d55780633f4ba83a146103305780634042b66f1461035f578063449a52f81461038a57806348cd4cb1146103d75780634bb278f314610402578063521eb273146104195780635607f408146104705780635c975abb146104b35780636d81779b146104e25780638456cb591461050d5780638d0b0b761461053c5780638da5cb5b14610567578063906a26e0146105be57806390862d1b146105e9578063c040e6b81461062c578063e43252d714610665578063ec8ac4d8146106a8578063ecb70fb7146106de578063f2fde38b1461070d578063fb86a40414610750578063fc0c546a1461077b575b61017e336107d2565b005b34801561018c57600080fd5b506101cb600480360381019080803573ffffffffffffffffffffffffffffffffffffffff16906020019092919080359060200190929190505050610d42565b005b3480156101d957600080fd5b506101e26110b9565b6040518082815260200191505060405180910390f35b34801561020457600080fd5b50610223600480360381019080803590602001909291905050506110bf565b005b34801561023157600080fd5b5061023a611253565b6040518082815260200191505060405180910390f35b34801561025c57600080fd5b5061027b60048036038101908080359060200190929190505050611259565b005b34801561028957600080fd5b506102a8600480360381019080803590602001909291905050506115ad565b005b3480156102b657600080fd5b506102bf6116df565b6040518082815260200191505060405180910390f35b3480156102e157600080fd5b50610316600480360381019080803573ffffffffffffffffffffffffffffffffffffffff1690602001909291905050506116e5565b604051808215151515815260200191505060405180910390f35b34801561033c57600080fd5b5061034561173b565b604051808215151515815260200191505060405180910390f35b34801561036b57600080fd5b50610374611802565b6040518082815260200191505060405180910390f35b34801561039657600080fd5b506103d5600480360381019080803573ffffffffffffffffffffffffffffffffffffffff16906020019092919080359060200190929190505050611808565b005b3480156103e357600080fd5b506103ec611cc3565b6040518082815260200191505060405180910390f35b34801561040e57600080fd5b50610417611cc9565b005b34801561042557600080fd5b5061042e611f28565b604051808273ffffffffffffffffffffffffffffffffffffffff1673ffffffffffffffffffffffffffffffffffffffff16815260200191505060405180910390f35b34801561047c57600080fd5b506104b1600480360381019080803573ffffffffffffffffffffffffffffffffffffffff169060200190929190505050611f4e565b005b3480156104bf57600080fd5b506104c8612081565b604051808215151515815260200191505060405180910390f35b3480156104ee57600080fd5b506104f7612094565b6040518082815260200191505060405180910390f35b34801561051957600080fd5b5061052261209a565b604051808215151515815260200191505060405180910390f35b34801561054857600080fd5b50610551612162565b6040518082815260200191505060405180910390f35b34801561057357600080fd5b5061057c612168565b604051808273ffffffffffffffffffffffffffffffffffffffff1673ffffffffffffffffffffffffffffffffffffffff16815260200191505060405180910390f35b3480156105ca57600080fd5b506105d361218e565b6040518082815260200191505060405180910390f35b3480156105f557600080fd5b5061062a600480360381019080803573ffffffffffffffffffffffffffffffffffffffff169060200190929190505050612194565b005b34801561063857600080fd5b506106416122c7565b6040518082600181111561065157fe5b60ff16815260200191505060405180910390f35b34801561067157600080fd5b506106a6600480360381019080803573ffffffffffffffffffffffffffffffffffffffff1690602001909291905050506122da565b005b6106dc600480360381019080803573ffffffffffffffffffffffffffffffffffffffff1690602001909291905050506107d2565b005b3480156106ea57600080fd5b506106f36123df565b604051808215151515815260200191505060405180910390f35b34801561071957600080fd5b5061074e600480360381019080803573ffffffffffffffffffffffffffffffffffffffff169060200190929190505050612402565b005b34801561075c57600080fd5b506107656124d9565b6040518082815260200191505060405180910390f35b34801561078757600080fd5b506107906124df565b604051808273ffffffffffffffffffffffffffffffffffffffff1673ffffffffffffffffffffffffffffffffffffffff16815260200191505060405180910390f35b600080600660149054906101000a900460ff161515156107f157600080fd5b60008373ffffffffffffffffffffffffffffffffffffffff1614151515610880576040517f08c379a000000000000000000000000000000000000000000000000000000000815260040180806020018281038252600f8152602001807f496e76616c69642061646472657373000000000000000000000000000000000081525060200191505060405180910390fd5b610888612504565b15156108fc576040517f08c379a00000000000000000000000000000000000000000000000000000000081526004018080602001828103825260108152602001807f496e76616c69642070757263686173650000000000000000000000000000000081525060200191505060405180910390fd5b3491506109146004548361253a90919063ffffffff16565b90506000600181111561092357fe5b600960009054906101000a900460ff16600181111561093e57fe5b1415610aa25761094d836116e5565b15156109c1576040517f08c379a00000000000000000000000000000000000000000000000000000000081526004018080602001828103825260178152602001807f41646472657373206e6f742077686974656c697374656400000000000000000081525060200191505060405180910390fd5b60006109f26109e1670de0b6b3a76400008461257590919063ffffffff16565b600a5461259090919063ffffffff16565b10151515610a68576040517f08c379a00000000000000000000000000000000000000000000000000000000081526004018080602001828103825260158152602001807f546f6b656e732065786365656420736f6674636170000000000000000000000081525060200191505060405180910390fd5b610a97610a86670de0b6b3a76400008361257590919063ffffffff16565b600a5461259090919063ffffffff16565b600a81905550610bad565b600180811115610aae57fe5b600960009054906101000a900460ff166001811115610ac957fe5b1415610bac576000610b00610aef670de0b6b3a76400008461257590919063ffffffff16565b600b5461259090919063ffffffff16565b10151515610b76576040517f08c379a00000000000000000000000000000000000000000000000000000000081526004018080602001828103825260158152602001807f546f6b656e73206578636565642068617264636170000000000000000000000081525060200191505060405180910390fd5b610ba5610b94670de0b6b3a76400008361257590919063ffffffff16565b600b5461259090919063ffffffff16565b600b819055505b5b610bc2826005546125a990919063ffffffff16565b6005819055506000809054906101000a900473ffffffffffffffffffffffffffffffffffffffff1673ffffffffffffffffffffffffffffffffffffffff166340c10f1984836040518363ffffffff167c0100000000000000000000000000000000000000000000000000000000028152600401808373ffffffffffffffffffffffffffffffffffffffff1673ffffffffffffffffffffffffffffffffffffffff16815260200182815260200192505050602060405180830381600087803b158015610c8c57600080fd5b505af1158015610ca0573d6000803e3d6000fd5b505050506040513d6020811015610cb657600080fd5b8101908080519060200190929190505050508273ffffffffffffffffffffffffffffffffffffffff163373ffffffffffffffffffffffffffffffffffffffff167f623b3804fa71d67900d064613da8f94b9617215ee90799290593e1745087ad188484604051808381526020018281526020019250505060405180910390a3610d3d6125c7565b505050565b600660009054906101000a900473ffffffffffffffffffffffffffffffffffffffff1673ffffffffffffffffffffffffffffffffffffffff163373ffffffffffffffffffffffffffffffffffffffff16141515610d9e57600080fd5b60008273ffffffffffffffffffffffffffffffffffffffff1614151515610e2d576040517f08c379a000000000000000000000000000000000000000000000000000000000815260040180806020018281038252600f8152602001807f496e76616c69642061646472657373000000000000000000000000000000000081525060200191505060405180910390fd5b600081111515610ea5576040517f08c379a00000000000000000000000000000000000000000000000000000000081526004018080602001828103825260148152602001807f496e76616c696420746f6b656e20616d6f756e7400000000000000000000000081525060200191505060405180910390fd5b6000610ebc82600d5461259090919063ffffffff16565b10151515610f32576040517f08c379a000000000000000000000000000000000000000000000000000000000815260040180806020018281038252601a8152602001807f416d6f756e7420657863656564732061697264726f702063617000000000000081525060200191505060405180910390fd5b610f4781600d5461259090919063ffffffff16565b600d819055506000809054906101000a900473ffffffffffffffffffffffffffffffffffffffff1673ffffffffffffffffffffffffffffffffffffffff166340c10f1983610fa6670de0b6b3a76400008561253a90919063ffffffff16565b6040518363ffffffff167c0100000000000000000000000000000000000000000000000000000000028152600401808373ffffffffffffffffffffffffffffffffffffffff1673ffffffffffffffffffffffffffffffffffffffff16815260200182815260200192505050602060405180830381600087803b15801561102b57600080fd5b505af115801561103f573d6000803e3d6000fd5b505050506040513d602081101561105557600080fd5b8101908080519060200190929190505050508173ffffffffffffffffffffffffffffffffffffffff167fa4171309aa20c94f7b0e295310f4f071d84286aa482020e09431d46f46ce89d9826040518082815260200191505060405180910390a25050565b60025481565b600660009054906101000a900473ffffffffffffffffffffffffffffffffffffffff1673ffffffffffffffffffffffffffffffffffffffff163373ffffffffffffffffffffffffffffffffffffffff1614151561111b57600080fd5b600660149054906101000a900460ff16151561113657600080fd5b6000600181111561114357fe5b600960009054906101000a900460ff16600181111561115e57fe5b1415156111d3576040517f08c379a000000000000000000000000000000000000000000000000000000000815260040180806020018281038252601b8152602001807f43757272656e74207374616765206973206e6f742070726549434f000000000081525060200191505060405180910390fd5b6001600960006101000a81548160ff021916908360018111156111f257fe5b021790555061120e600a54600b546125a990919063ffffffff16565b600b819055508060048190555061122361173b565b507f4722e6c4579996b373f4de030a1847ddba1df215e3fc5388223a9873d563e7ef60405160405180910390a150565b60045481565b600660009054906101000a900473ffffffffffffffffffffffffffffffffffffffff1673ffffffffffffffffffffffffffffffffffffffff163373ffffffffffffffffffffffffffffffffffffffff161415156112b557600080fd5b60008111151561132d576040517f08c379a00000000000000000000000000000000000000000000000000000000081526004018080602001828103825260188152602001807f546f6b656e20616d6f756e742063616e6e6f742062652030000000000000000081525060200191505060405180910390fd5b600061134482600c5461259090919063ffffffff16565b101515156113ba576040517f08c379a000000000000000000000000000000000000000000000000000000000815260040180806020018281038252601d8152602001807f546f6b656e20616d6f756e742065786365656473207465616d2063617000000081525060200191505060405180910390fd5b6113c26123df565b1515611436576040517f08c379a000000000000000000000000000000000000000000000000000000000815260040180806020018281038252601a8152602001807f43726f776473616c6520686173206e6f742066696e697368656400000000000081525060200191505060405180910390fd5b61144b81600c5461259090919063ffffffff16565b600c819055506000809054906101000a900473ffffffffffffffffffffffffffffffffffffffff1673ffffffffffffffffffffffffffffffffffffffff166340c10f19600360009054906101000a900473ffffffffffffffffffffffffffffffffffffffff16836040518363ffffffff167c0100000000000000000000000000000000000000000000000000000000028152600401808373ffffffffffffffffffffffffffffffffffffffff1673ffffffffffffffffffffffffffffffffffffffff16815260200182815260200192505050602060405180830381600087803b15801561153757600080fd5b505af115801561154b573d6000803e3d6000fd5b505050506040513d602081101561156157600080fd5b8101908080519060200190929190505050507fffac78a182cd67da1e10967888bf64ecccf0adda35d9e78d7ea99ff49cc1944d816040518082815260200191505060405180910390a150565b600660149054906101000a900460ff1615156115c857600080fd5b600660009054906101000a900473ffffffffffffffffffffffffffffffffffffffff1673ffffffffffffffffffffffffffffffffffffffff163373ffffffffffffffffffffffffffffffffffffffff1614151561162457600080fd5b60008111151561169c576040517f08c379a000000000000000000000000000000000000000000000000000000000815260040180806020018281038252600c8152602001807f52617465206973207a65726f000000000000000000000000000000000000000081525060200191505060405180910390fd5b806004819055507f595a30f13a69b616c4d568e2a2b7875fdfe86e4300a049953c76ee278f8f3f106004546040518082815260200191505060405180910390a150565b60085481565b6000600760008373ffffffffffffffffffffffffffffffffffffffff1673ffffffffffffffffffffffffffffffffffffffff16815260200190815260200160002060009054906101000a900460ff169050919050565b6000600660009054906101000a900473ffffffffffffffffffffffffffffffffffffffff1673ffffffffffffffffffffffffffffffffffffffff163373ffffffffffffffffffffffffffffffffffffffff1614151561179957600080fd5b600660149054906101000a900460ff1615156117b457600080fd5b6000600660146101000a81548160ff0219169083151502179055507f7805862f689e2f13df9f062ff482ad3ad112aca9e0847911ed832e158c525b3360405160405180910390a16001905090565b60055481565b600080600660009054906101000a900473ffffffffffffffffffffffffffffffffffffffff1673ffffffffffffffffffffffffffffffffffffffff163373ffffffffffffffffffffffffffffffffffffffff1614151561186757600080fd5b60008473ffffffffffffffffffffffffffffffffffffffff16141515156118f6576040517f08c379a000000000000000000000000000000000000000000000000000000000815260040180806020018281038252600f8152602001807f496e76616c69642061646472657373000000000000000000000000000000000081525060200191505060405180910390fd5b60008311151561196e576040517f08c379a00000000000000000000000000000000000000000000000000000000081526004018080602001828103825260148152602001807f496e76616c696420746f6b656e20616d6f756e7400000000000000000000000081525060200191505060405180910390fd5b611989670de0b6b3a76400008461253a90919063ffffffff16565b91506119a06004548361257590919063ffffffff16565b9050600060018111156119af57fe5b600960009054906101000a900460ff1660018111156119ca57fe5b1415611a7d5760006119e784600a5461259090919063ffffffff16565b10151515611a5d576040517f08c379a00000000000000000000000000000000000000000000000000000000081526004018080602001828103825260158152602001807f546f6b656e732065786365656420736f6674636170000000000000000000000081525060200191505060405180910390fd5b611a7283600a5461259090919063ffffffff16565b600a81905550611b54565b600180811115611a8957fe5b600960009054906101000a900460ff166001811115611aa457fe5b1415611b53576000611ac184600b5461259090919063ffffffff16565b10151515611b37576040517f08c379a00000000000000000000000000000000000000000000000000000000081526004018080602001828103825260158152602001807f546f6b656e73206578636565642068617264636170000000000000000000000081525060200191505060405180910390fd5b611b4c83600b5461259090919063ffffffff16565b600b819055505b5b611b69816005546125a990919063ffffffff16565b6005819055506000809054906101000a900473ffffffffffffffffffffffffffffffffffffffff1673ffffffffffffffffffffffffffffffffffffffff166340c10f1985846040518363ffffffff167c0100000000000000000000000000000000000000000000000000000000028152600401808373ffffffffffffffffffffffffffffffffffffffff1673ffffffffffffffffffffffffffffffffffffffff16815260200182815260200192505050602060405180830381600087803b158015611c3357600080fd5b505af1158015611c47573d6000803e3d6000fd5b505050506040513d6020811015611c5d57600080fd5b8101908080519060200190929190505050508373ffffffffffffffffffffffffffffffffffffffff167f69181863b43a3460f1942b976f71bd5c71682839de880ae175ffbc044c886960836040518082815260200191505060405180910390a250505050565b60015481565b600660009054906101000a900473ffffffffffffffffffffffffffffffffffffffff1673ffffffffffffffffffffffffffffffffffffffff163373ffffffffffffffffffffffffffffffffffffffff16141515611d2557600080fd5b600660149054906101000a900460ff161515611d4057600080fd5b6000600b541115611e39576000809054906101000a900473ffffffffffffffffffffffffffffffffffffffff1673ffffffffffffffffffffffffffffffffffffffff166340c10f196000600b546040518363ffffffff167c0100000000000000000000000000000000000000000000000000000000028152600401808373ffffffffffffffffffffffffffffffffffffffff16815260200182815260200192505050602060405180830381600087803b158015611dfc57600080fd5b505af1158015611e10573d6000803e3d6000fd5b505050506040513d6020811015611e2657600080fd5b8101908080519060200190929190505050505b6000809054906101000a900473ffffffffffffffffffffffffffffffffffffffff1673ffffffffffffffffffffffffffffffffffffffff16633f4ba83a6040518163ffffffff167c0100000000000000000000000000000000000000000000000000000000028152600401602060405180830381600087803b158015611ebe57600080fd5b505af1158015611ed2573d6000803e3d6000fd5b505050506040513d6020811015611ee857600080fd5b8101908080519060200190929190505050507f6c08d5fc22afc78558d47102889dc76d6b5eff2c703c6229715aebc4f522627a60405160405180910390a1565b600360009054906101000a900473ffffffffffffffffffffffffffffffffffffffff1681565b600660009054906101000a900473ffffffffffffffffffffffffffffffffffffffff1673ffffffffffffffffffffffffffffffffffffffff163373ffffffffffffffffffffffffffffffffffffffff16141515611faa57600080fd5b6000809054906101000a900473ffffffffffffffffffffffffffffffffffffffff1673ffffffffffffffffffffffffffffffffffffffff16638d1fdf2f826040518263ffffffff167c0100000000000000000000000000000000000000000000000000000000028152600401808273ffffffffffffffffffffffffffffffffffffffff1673ffffffffffffffffffffffffffffffffffffffff168152602001915050600060405180830381600087803b15801561206657600080fd5b505af115801561207a573d6000803e3d6000fd5b5050505050565b600660149054906101000a900460ff1681565b600c5481565b6000600660009054906101000a900473ffffffffffffffffffffffffffffffffffffffff1673ffffffffffffffffffffffffffffffffffffffff163373ffffffffffffffffffffffffffffffffffffffff161415156120f857600080fd5b600660149054906101000a900460ff1615151561211457600080fd5b6001600660146101000a81548160ff0219169083151502179055507f6985a02210a168e66602d3235cb6db0e70f92b3ba4d376a33c0f3d9434bff62560405160405180910390a16001905090565b600d5481565b600660009054906101000a900473ffffffffffffffffffffffffffffffffffffffff1681565b600a5481565b600660009054906101000a900473ffffffffffffffffffffffffffffffffffffffff1673ffffffffffffffffffffffffffffffffffffffff163373ffffffffffffffffffffffffffffffffffffffff161415156121f057600080fd5b6000809054906101000a900473ffffffffffffffffffffffffffffffffffffffff1673ffffffffffffffffffffffffffffffffffffffff166345c8b1a6826040518263ffffffff167c0100000000000000000000000000000000000000000000000000000000028152600401808273ffffffffffffffffffffffffffffffffffffffff1673ffffffffffffffffffffffffffffffffffffffff168152602001915050600060405180830381600087803b1580156122ac57600080fd5b505af11580156122c0573d6000803e3d6000fd5b5050505050565b600960009054906101000a900460ff1681565b600660009054906101000a900473ffffffffffffffffffffffffffffffffffffffff1673ffffffffffffffffffffffffffffffffffffffff163373ffffffffffffffffffffffffffffffffffffffff1614151561233657600080fd5b6000600181111561234357fe5b600960009054906101000a900460ff16600181111561235e57fe5b1415156123d3576040517f08c379a000000000000000000000000000000000000000000000000000000000815260040180806020018281038252601b8152602001807f43757272656e74207374616765206973206e6f742070726549434f000000000081525060200191505060405180910390fd5b6123dc81612632565b50565b600080600854600554101590506123f461270f565b806123fc5750805b91505090565b600660009054906101000a900473ffffffffffffffffffffffffffffffffffffffff1673ffffffffffffffffffffffffffffffffffffffff163373ffffffffffffffffffffffffffffffffffffffff1614151561245e57600080fd5b600073ffffffffffffffffffffffffffffffffffffffff168173ffffffffffffffffffffffffffffffffffffffff161415156124d65780600660006101000a81548173ffffffffffffffffffffffffffffffffffffffff021916908373ffffffffffffffffffffffffffffffffffffffff1602179055505b50565b600b5481565b6000809054906101000a900473ffffffffffffffffffffffffffffffffffffffff1681565b60008060085461251f346005546125a990919063ffffffff16565b1115905061252b61271b565b80156125345750805b91505090565b600080600084141561254f576000915061256e565b828402905082848281151561256057fe5b0414151561256a57fe5b8091505b5092915050565b600080828481151561258357fe5b0490508091505092915050565b600082821115151561259e57fe5b818303905092915050565b60008082840190508381101515156125bd57fe5b8091505092915050565b600360009054906101000a900473ffffffffffffffffffffffffffffffffffffffff1673ffffffffffffffffffffffffffffffffffffffff166108fc349081150290604051600060405180830381858888f1935050505015801561262f573d6000803e3d6000fd5b50565b600660009054906101000a900473ffffffffffffffffffffffffffffffffffffffff1673ffffffffffffffffffffffffffffffffffffffff163373ffffffffffffffffffffffffffffffffffffffff1614151561268e57600080fd5b60008173ffffffffffffffffffffffffffffffffffffffff16141515156126b457600080fd5b6001600760008373ffffffffffffffffffffffffffffffffffffffff1673ffffffffffffffffffffffffffffffffffffffff16815260200190815260200160002060006101000a81548160ff02191690831515021790555050565b60006002544311905090565b6000806127266123df565b1580156127385750612737336116e5565b5b9050612742612750565b8061274a5750805b91505090565b600080600080439250600154831015801561276d57506002548311155b9150600034141590508180156127805750805b9350505050905600a165627a7a72305820d223562a11dd4cf3d623a67fcd6b14682d88ffbb41a9f9bb41bd13bc03e988c0002960806040526000600560006101000a81548160ff0219169083151502179055506000600560016101000a81548160ff02191690831515021790555033600360006101000a81548173ffffffffffffffffffffffffffffffffffffffff021916908373ffffffffffffffffffffffffffffffffffffffff1602179055506118ee8061008a6000396000f300608060405260043610610112576000357c0100000000000000000000000000000000000000000000000000000000900463ffffffff16806305d2035b1461011757806306fdde0314610146578063095ea7b3146101d657806318160ddd1461023b57806323b872dd14610266578063313ce567146102eb5780633f4ba83a1461031c57806340c10f191461034b57806342966c68146103b057806345c8b1a6146103dd5780635c975abb1461042057806370a082311461044f5780637d64bcb4146104a65780638456cb59146104d55780638d1fdf2f146105045780638da5cb5b1461054757806395d89b411461059e578063a9059cbb1461062e578063dd62ed3e14610693578063f2fde38b1461070a575b600080fd5b34801561012357600080fd5b5061012c61074d565b604051808215151515815260200191505060405180910390f35b34801561015257600080fd5b5061015b610760565b6040518080602001828103825283818151815260200191508051906020019080838360005b8381101561019b578082015181840152602081019050610180565b50505050905090810190601f1680156101c85780820380516001836020036101000a031916815260200191505b509250505060405180910390f35b3480156101e257600080fd5b50610221600480360381019080803573ffffffffffffffffffffffffffffffffffffffff16906020019092919080359060200190929190505050610799565b604051808215151515815260200191505060405180910390f35b34801561024757600080fd5b50610250610920565b6040518082815260200191505060405180910390f35b34801561027257600080fd5b506102d1600480360381019080803573ffffffffffffffffffffffffffffffffffffffff169060200190929190803573ffffffffffffffffffffffffffffffffffffffff16906020019092919080359060200190929190505050610926565b604051808215151515815260200191505060405180910390f35b3480156102f757600080fd5b50610300610958565b604051808260ff1660ff16815260200191505060405180910390f35b34801561032857600080fd5b5061033161095d565b604051808215151515815260200191505060405180910390f35b34801561035757600080fd5b50610396600480360381019080803573ffffffffffffffffffffffffffffffffffffffff16906020019092919080359060200190929190505050610a24565b604051808215151515815260200191505060405180910390f35b3480156103bc57600080fd5b506103db60048036038101908080359060200190929190505050610ba6565b005b3480156103e957600080fd5b5061041e600480360381019080803573ffffffffffffffffffffffffffffffffffffffff169060200190929190505050610cbb565b005b34801561042c57600080fd5b50610435610ddb565b604051808215151515815260200191505060405180910390f35b34801561045b57600080fd5b50610490600480360381019080803573ffffffffffffffffffffffffffffffffffffffff169060200190929190505050610dee565b6040518082815260200191505060405180910390f35b3480156104b257600080fd5b506104bb610e37565b604051808215151515815260200191505060405180910390f35b3480156104e157600080fd5b506104ea610ee3565b604051808215151515815260200191505060405180910390f35b34801561051057600080fd5b50610545600480360381019080803573ffffffffffffffffffffffffffffffffffffffff169060200190929190505050610fab565b005b34801561055357600080fd5b5061055c6110cb565b604051808273ffffffffffffffffffffffffffffffffffffffff1673ffffffffffffffffffffffffffffffffffffffff16815260200191505060405180910390f35b3480156105aa57600080fd5b506105b36110f1565b6040518080602001828103825283818151815260200191508051906020019080838360005b838110156105f35780820151818401526020810190506105d8565b50505050905090810190601f1680156106205780820380516001836020036101000a031916815260200191505b509250505060405180910390f35b34801561063a57600080fd5b50610679600480360381019080803573ffffffffffffffffffffffffffffffffffffffff1690602001909291908035906020019092919050505061112a565b604051808215151515815260200191505060405180910390f35b34801561069f57600080fd5b506106f4600480360381019080803573ffffffffffffffffffffffffffffffffffffffff169060200190929190803573ffffffffffffffffffffffffffffffffffffffff16906020019092919050505061115a565b6040518082815260200191505060405180910390f35b34801561071657600080fd5b5061074b600480360381019080803573ffffffffffffffffffffffffffffffffffffffff1690602001909291905050506111e1565b005b600560019054906101000a900460ff1681565b6040805190810160405280600d81526020017f4b61707974616c20546f6b656e0000000000000000000000000000000000000081525081565b60008082148061082557506000600260003373ffffffffffffffffffffffffffffffffffffffff1673ffffffffffffffffffffffffffffffffffffffff16815260200190815260200160002060008573ffffffffffffffffffffffffffffffffffffffff1673ffffffffffffffffffffffffffffffffffffffff16815260200190815260200160002054145b151561083057600080fd5b81600260003373ffffffffffffffffffffffffffffffffffffffff1673ffffffffffffffffffffffffffffffffffffffff16815260200190815260200160002060008573ffffffffffffffffffffffffffffffffffffffff1673ffffffffffffffffffffffffffffffffffffffff168152602001908152602001600020819055508273ffffffffffffffffffffffffffffffffffffffff163373ffffffffffffffffffffffffffffffffffffffff167f8c5be1e5ebec7d5bd14f71427d1e84f3dd0314c0f7b2291e5b200ac8c7c3b925846040518082815260200191505060405180910390a36001905092915050565b60005481565b6000600560009054906101000a900460ff1615151561094457600080fd5b61094f8484846112b8565b90509392505050565b601281565b6000600360009054906101000a900473ffffffffffffffffffffffffffffffffffffffff1673ffffffffffffffffffffffffffffffffffffffff163373ffffffffffffffffffffffffffffffffffffffff161415156109bb57600080fd5b600560009054906101000a900460ff1615156109d657600080fd5b6000600560006101000a81548160ff0219169083151502179055507f7805862f689e2f13df9f062ff482ad3ad112aca9e0847911ed832e158c525b3360405160405180910390a16001905090565b6000600360009054906101000a900473ffffffffffffffffffffffffffffffffffffffff1673ffffffffffffffffffffffffffffffffffffffff163373ffffffffffffffffffffffffffffffffffffffff16141515610a8257600080fd5b600560019054906101000a900460ff16151515610a9e57600080fd5b610ab38260005461137d90919063ffffffff16565b600081905550610b0b82600160008673ffffffffffffffffffffffffffffffffffffffff1673ffffffffffffffffffffffffffffffffffffffff1681526020019081526020016000205461137d90919063ffffffff16565b600160008573ffffffffffffffffffffffffffffffffffffffff1673ffffffffffffffffffffffffffffffffffffffff168152602001908152602001600020819055508273ffffffffffffffffffffffffffffffffffffffff167f0f6798a560793a54c3bcfe86a93cde1e73087d944c0ea20544137d4121396885836040518082815260200191505060405180910390a26001905092915050565b60008082111515610bb657600080fd5b339050610c0b82600160008473ffffffffffffffffffffffffffffffffffffffff1673ffffffffffffffffffffffffffffffffffffffff1681526020019081526020016000205461139b90919063ffffffff16565b600160008373ffffffffffffffffffffffffffffffffffffffff1673ffffffffffffffffffffffffffffffffffffffff16815260200190815260200160002081905550610c638260005461139b90919063ffffffff16565b6000819055508073ffffffffffffffffffffffffffffffffffffffff167fcc16f5dbb4873280815c1ee09dbd06736cffcc184412cf7a71a0fdb75d397ca5836040518082815260200191505060405180910390a25050565b600360009054906101000a900473ffffffffffffffffffffffffffffffffffffffff1673ffffffffffffffffffffffffffffffffffffffff163373ffffffffffffffffffffffffffffffffffffffff16141515610d1757600080fd5b60008173ffffffffffffffffffffffffffffffffffffffff1614151515610d3d57600080fd5b6000600460008373ffffffffffffffffffffffffffffffffffffffff1673ffffffffffffffffffffffffffffffffffffffff16815260200190815260200160002060006101000a81548160ff0219169083151502179055508073ffffffffffffffffffffffffffffffffffffffff167f495000bab77c122cd7e46bf45a154d1d3a41d7b10838e41bba384a6096403c9460405160405180910390a250565b600560009054906101000a900460ff1681565b6000600160008373ffffffffffffffffffffffffffffffffffffffff1673ffffffffffffffffffffffffffffffffffffffff168152602001908152602001600020549050919050565b6000600360009054906101000a900473ffffffffffffffffffffffffffffffffffffffff1673ffffffffffffffffffffffffffffffffffffffff163373ffffffffffffffffffffffffffffffffffffffff16141515610e9557600080fd5b6001600560016101000a81548160ff0219169083151502179055507fae5184fba832cb2b1f702aca6117b8d265eaf03ad33eb133f19dde0f5920fa0860405160405180910390a16001905090565b6000600360009054906101000a900473ffffffffffffffffffffffffffffffffffffffff1673ffffffffffffffffffffffffffffffffffffffff163373ffffffffffffffffffffffffffffffffffffffff16141515610f4157600080fd5b600560009054906101000a900460ff16151515610f5d57600080fd5b6001600560006101000a81548160ff0219169083151502179055507f6985a02210a168e66602d3235cb6db0e70f92b3ba4d376a33c0f3d9434bff62560405160405180910390a16001905090565b600360009054906101000a900473ffffffffffffffffffffffffffffffffffffffff1673ffffffffffffffffffffffffffffffffffffffff163373ffffffffffffffffffffffffffffffffffffffff1614151561100757600080fd5b60008173ffffffffffffffffffffffffffffffffffffffff161415151561102d57600080fd5b6001600460008373ffffffffffffffffffffffffffffffffffffffff1673ffffffffffffffffffffffffffffffffffffffff16815260200190815260200160002060006101000a81548160ff0219169083151502179055508073ffffffffffffffffffffffffffffffffffffffff167f4ae80cf10a460786338dbb9f2b9779a92c9f9fb4d3edf09d61f14ed928c2d57a60405160405180910390a250565b600360009054906101000a900473ffffffffffffffffffffffffffffffffffffffff1681565b6040805190810160405280600381526020017f4b594c000000000000000000000000000000000000000000000000000000000081525081565b6000600560009054906101000a900460ff1615151561114857600080fd5b61115283836113b4565b905092915050565b6000600260008473ffffffffffffffffffffffffffffffffffffffff1673ffffffffffffffffffffffffffffffffffffffff16815260200190815260200160002060008373ffffffffffffffffffffffffffffffffffffffff1673ffffffffffffffffffffffffffffffffffffffff16815260200190815260200160002054905092915050565b600360009054906101000a900473ffffffffffffffffffffffffffffffffffffffff1673ffffffffffffffffffffffffffffffffffffffff163373ffffffffffffffffffffffffffffffffffffffff1614151561123d57600080fd5b600073ffffffffffffffffffffffffffffffffffffffff168173ffffffffffffffffffffffffffffffffffffffff161415156112b55780600360006101000a81548173ffffffffffffffffffffffffffffffffffffffff021916908373ffffffffffffffffffffffffffffffffffffffff1602179055505b50565b6000600460003373ffffffffffffffffffffffffffffffffffffffff1673ffffffffffffffffffffffffffffffffffffffff16815260200190815260200160002060009054906101000a900460ff1615801561135e5750600460008473ffffffffffffffffffffffffffffffffffffffff1673ffffffffffffffffffffffffffffffffffffffff16815260200190815260200160002060009054906101000a900460ff16155b151561136957600080fd5b611374848484611477565b90509392505050565b600080828401905083811015151561139157fe5b8091505092915050565b60008282111515156113a957fe5b818303905092915050565b6000600460003373ffffffffffffffffffffffffffffffffffffffff1673ffffffffffffffffffffffffffffffffffffffff16815260200190815260200160002060009054906101000a900460ff1615801561145a5750600460008473ffffffffffffffffffffffffffffffffffffffff1673ffffffffffffffffffffffffffffffffffffffff16815260200190815260200160002060009054906101000a900460ff16155b151561146557600080fd5b61146f8383611727565b905092915050565b600080600260008673ffffffffffffffffffffffffffffffffffffffff1673ffffffffffffffffffffffffffffffffffffffff16815260200190815260200160002060003373ffffffffffffffffffffffffffffffffffffffff1673ffffffffffffffffffffffffffffffffffffffff16815260200190815260200160002054905061154b83600160008773ffffffffffffffffffffffffffffffffffffffff1673ffffffffffffffffffffffffffffffffffffffff1681526020019081526020016000205461137d90919063ffffffff16565b600160008673ffffffffffffffffffffffffffffffffffffffff1673ffffffffffffffffffffffffffffffffffffffff168152602001908152602001600020819055506115e083600160008873ffffffffffffffffffffffffffffffffffffffff1673ffffffffffffffffffffffffffffffffffffffff1681526020019081526020016000205461139b90919063ffffffff16565b600160008773ffffffffffffffffffffffffffffffffffffffff1673ffffffffffffffffffffffffffffffffffffffff16815260200190815260200160002081905550611636838261139b90919063ffffffff16565b600260008773ffffffffffffffffffffffffffffffffffffffff1673ffffffffffffffffffffffffffffffffffffffff16815260200190815260200160002060003373ffffffffffffffffffffffffffffffffffffffff1673ffffffffffffffffffffffffffffffffffffffff168152602001908152602001600020819055508373ffffffffffffffffffffffffffffffffffffffff168573ffffffffffffffffffffffffffffffffffffffff167fddf252ad1be2c89b69c2b068fc378daa952ba7f163c4a11628f55a4df523b3ef856040518082815260200191505060405180910390a360019150509392505050565b600061177b82600160003373ffffffffffffffffffffffffffffffffffffffff1673ffffffffffffffffffffffffffffffffffffffff1681526020019081526020016000205461139b90919063ffffffff16565b600160003373ffffffffffffffffffffffffffffffffffffffff1673ffffffffffffffffffffffffffffffffffffffff1681526020019081526020016000208190555061181082600160008673ffffffffffffffffffffffffffffffffffffffff1673ffffffffffffffffffffffffffffffffffffffff1681526020019081526020016000205461137d90919063ffffffff16565b600160008573ffffffffffffffffffffffffffffffffffffffff1673ffffffffffffffffffffffffffffffffffffffff168152602001908152602001600020819055508273ffffffffffffffffffffffffffffffffffffffff163373ffffffffffffffffffffffffffffffffffffffff167fddf252ad1be2c89b69c2b068fc378daa952ba7f163c4a11628f55a4df523b3ef846040518082815260200191505060405180910390a360019050929150505600a165627a7a723058202d9ad352fd86ddc2c61d1136131d087f58e0c4e6ef74cb562db1152741f9f82d0029",
  "source": "pragma solidity ^0.4.22;\r\n\r\nimport \"./Crowdsale.sol\";\r\n\r\ncontract KYLCrowdsale is Pausable, WhitelistedCrowdsale, CappedCrowdsale{\r\n    enum stages {pICO, ICO}\r\n\r\n    event PreCrowdsaleStarted();\r\n    event CrowdsaleStarted();\r\n    event CrowdsaleFinished();\r\n    event RateChanged(uint256 rate);\r\n\r\n    event ExternalPurchase(address indexed who, uint256 tokens);\r\n    event AirDroppedTokens(address indexed who, uint256 tokens);\r\n    event TeamMintedTokens(uint256 tokens);\r\n\r\n    stages public stage;\r\n\r\n    uint256 public softCap;\r\n    uint256 public hardCap;\r\n    uint256 public teamCap;\r\n    uint256 public airdropCap;\r\n\r\n    constructor(\r\n        uint256 _startBlock, uint256 _endBlock, \r\n        uint256 _fixRate, address wallet\r\n    )\r\n        public \r\n        Crowdsale(_startBlock, _endBlock, _fixRate, wallet)\r\n        WhitelistedCrowdsale()\r\n        CappedCrowdsale(38350 ether)\r\n    {\r\n        stage = stages.pICO;\r\n\r\n        softCap = 15000000;\r\n        hardCap = 50000000;\r\n        teamCap = 30000000;\r\n        airdropCap = 5000000;\r\n\r\n        KYLToken(token).pause();\r\n\r\n        emit PreCrowdsaleStarted();\r\n    }\r\n\r\n    /** function override */\r\n    function createTokenContract() internal returns (MintableToken) {\r\n        return new KYLToken();\r\n    }\r\n\r\n    function addToWhitelist(address buyer) public onlyOwner{\r\n        require(stage == stages.pICO, \"Current stage is not preICO\");\r\n        super.addToWhitelist(buyer);\r\n    }\r\n\r\n    function setRate(uint256 _rate) public whenPaused onlyOwner{\r\n        require(_rate > 0, \"Rate is zero\");\r\n        rate = _rate;\r\n        emit RateChanged(rate);\r\n    }\r\n\r\n    /** function override */\r\n    function buyTokens(address who) public whenNotPaused payable{\r\n        require(who != 0x0, \"Invalid address\");\r\n        require(super.validPurchase(), \"Invalid purchase\");\r\n\r\n        uint256 value = msg.value;\r\n        uint256 tokens = value.mul(rate);\r\n\r\n        if(stage == stages.pICO){\r\n            require(super.isWhitelisted(who), \"Address not whitelisted\");\r\n            require(softCap.sub(tokens.div(1 ether)) >= 0, \"Tokens exceed softcap\");        \r\n            softCap = softCap.sub(tokens.div(1 ether));\r\n        }else if(stage == stages.ICO){\r\n            require(hardCap.sub(tokens.div(1 ether)) >= 0, \"Tokens exceed hardcap\");\r\n            hardCap = hardCap.sub(tokens.div(1 ether));\r\n        }\r\n        \r\n        weiRaised = weiRaised.add(value);\r\n        token.mint(who, tokens);\r\n        emit TokenPurchase(msg.sender, who, value, tokens);\r\n        \r\n        super.forwardFunds();\r\n    }\r\n\r\n    /* handle external buyers */\r\n    function mintTo(address who, uint256 tokens) public onlyOwner{\r\n        require(who != 0x0, \"Invalid address\");\r\n        require(tokens > 0, \"Invalid token amount\");\r\n\r\n        uint256 total = tokens.mul(1 ether);\r\n        uint256 value = total.div(rate);\r\n\r\n        if(stage == stages.pICO){\r\n            require(softCap.sub(tokens) >= 0, \"Tokens exceed softcap\");\r\n            softCap = softCap.sub(tokens);\r\n        }else if(stage == stages.ICO){\r\n            require(hardCap.sub(tokens) >= 0, \"Tokens exceed hardcap\");\r\n            hardCap = hardCap.sub(tokens);\r\n        }\r\n\r\n        weiRaised = weiRaised.add(value);\r\n        token.mint(who, total);\r\n        emit ExternalPurchase(who, total);\r\n    }\r\n\r\n    /* airdrop tokens */\r\n    function airDrop(address who, uint256 tokens) public onlyOwner{\r\n        require(who != 0x0, \"Invalid address\");\r\n        require(tokens > 0, \"Invalid token amount\");\r\n        require(airdropCap.sub(tokens) >= 0, \"Amount exceeds airdrop cap\");\r\n\r\n        airdropCap = airdropCap.sub(tokens);\r\n\r\n        token.mint(who, tokens.mul(1 ether));\r\n        emit AirDroppedTokens(who, tokens);\r\n    }\r\n\r\n    /* finalize pICO, goto next stage */\r\n    function endPreICO(uint256 _rate) public onlyOwner whenPaused{\r\n        require(stage == stages.pICO, \"Current stage is not preICO\");\r\n\r\n        stage = stages.ICO;\r\n        hardCap = hardCap.add(softCap);\r\n        rate = _rate;\r\n\r\n        super.unpause();\r\n        emit CrowdsaleStarted();\r\n    }\r\n\r\n    /* finalize public crowdsale */\r\n    function finalize() public onlyOwner whenPaused{\r\n        //require(hasEnded(), \"EndBlock not reached yet\");\r\n        \r\n        if(hardCap > 0){\r\n            token.mint(0x0, hardCap);        \r\n        }\r\n\r\n        KYLToken(token).unpause();\r\n        emit CrowdsaleFinished();\r\n    }\r\n\r\n    function freezeTokens(address who) public onlyOwner{\r\n        KYLToken(token).freeze(who);\r\n    }\r\n\r\n    function unfreezeTokens(address who) public onlyOwner{\r\n        KYLToken(token).unfreeze(who);\r\n    }\r\n\r\n    /* partial liberate foundation tokens */\r\n    function teamMint(uint256 tokens) public onlyOwner{\r\n        require(tokens > 0, \"Token amount cannot be 0\");\r\n        require(teamCap.sub(tokens) >= 0, \"Token amount exceeds team cap\");\r\n        require(hasEnded(), \"Crowdsale has not finished\");\r\n\r\n        teamCap = teamCap.sub(tokens);\r\n        token.mint(wallet, tokens);\r\n\r\n        emit TeamMintedTokens(tokens);\r\n    }\r\n}",
  "sourcePath": "C:\\Users\\Alex\\Desktop\\KAPYTAL\\KYL Test\\contracts\\KYLCrowdsale.sol",
  "compiler": {
    "name": "solc",
    "version": "0.4.24+commit.e67f0147.Emscripten.clang"
  },
  "schemaVersion": "2.0.1",
  "updatedAt": "2018-07-25T04:29:45.477Z"
}