{
  "contractName": "KYLCrowdsale",
  "abi": [
    {
      "constant": true,
      "inputs": [],
      "name": "endBlock",
      "outputs": [
        {
          "name": "",
          "type": "uint256"
        }
      ],
      "payable": false,
      "stateMutability": "view",
      "type": "function"
    },
    {
      "constant": true,
      "inputs": [],
      "name": "rate",
      "outputs": [
        {
          "name": "",
          "type": "uint256"
        }
      ],
      "payable": false,
      "stateMutability": "view",
      "type": "function"
    },
    {
      "constant": true,
      "inputs": [],
      "name": "cap",
      "outputs": [
        {
          "name": "",
          "type": "uint256"
        }
      ],
      "payable": false,
      "stateMutability": "view",
      "type": "function"
    },
    {
      "constant": true,
      "inputs": [
        {
          "name": "buyer",
          "type": "address"
        }
      ],
      "name": "isWhitelisted",
      "outputs": [
        {
          "name": "",
          "type": "bool"
        }
      ],
      "payable": false,
      "stateMutability": "view",
      "type": "function"
    },
    {
      "constant": false,
      "inputs": [],
      "name": "unpause",
      "outputs": [
        {
          "name": "",
          "type": "bool"
        }
      ],
      "payable": false,
      "stateMutability": "nonpayable",
      "type": "function"
    },
    {
      "constant": true,
      "inputs": [],
      "name": "weiRaised",
      "outputs": [
        {
          "name": "",
          "type": "uint256"
        }
      ],
      "payable": false,
      "stateMutability": "view",
      "type": "function"
    },
    {
      "constant": true,
      "inputs": [],
      "name": "startBlock",
      "outputs": [
        {
          "name": "",
          "type": "uint256"
        }
      ],
      "payable": false,
      "stateMutability": "view",
      "type": "function"
    },
    {
      "constant": true,
      "inputs": [],
      "name": "wallet",
      "outputs": [
        {
          "name": "",
          "type": "address"
        }
      ],
      "payable": false,
      "stateMutability": "view",
      "type": "function"
    },
    {
      "constant": true,
      "inputs": [],
      "name": "paused",
      "outputs": [
        {
          "name": "",
          "type": "bool"
        }
      ],
      "payable": false,
      "stateMutability": "view",
      "type": "function"
    },
    {
      "constant": true,
      "inputs": [],
      "name": "teamCap",
      "outputs": [
        {
          "name": "",
          "type": "uint256"
        }
      ],
      "payable": false,
      "stateMutability": "view",
      "type": "function"
    },
    {
      "constant": false,
      "inputs": [],
      "name": "pause",
      "outputs": [
        {
          "name": "",
          "type": "bool"
        }
      ],
      "payable": false,
      "stateMutability": "nonpayable",
      "type": "function"
    },
    {
      "constant": true,
      "inputs": [],
      "name": "airdropCap",
      "outputs": [
        {
          "name": "",
          "type": "uint256"
        }
      ],
      "payable": false,
      "stateMutability": "view",
      "type": "function"
    },
    {
      "constant": true,
      "inputs": [],
      "name": "owner",
      "outputs": [
        {
          "name": "",
          "type": "address"
        }
      ],
      "payable": false,
      "stateMutability": "view",
      "type": "function"
    },
    {
      "constant": true,
      "inputs": [],
      "name": "softCap",
      "outputs": [
        {
          "name": "",
          "type": "uint256"
        }
      ],
      "payable": false,
      "stateMutability": "view",
      "type": "function"
    },
    {
      "constant": true,
      "inputs": [],
      "name": "stage",
      "outputs": [
        {
          "name": "",
          "type": "uint8"
        }
      ],
      "payable": false,
      "stateMutability": "view",
      "type": "function"
    },
    {
      "constant": true,
      "inputs": [],
      "name": "hasEnded",
      "outputs": [
        {
          "name": "",
          "type": "bool"
        }
      ],
      "payable": false,
      "stateMutability": "view",
      "type": "function"
    },
    {
      "constant": false,
      "inputs": [
        {
          "name": "newOwner",
          "type": "address"
        }
      ],
      "name": "transferOwnership",
      "outputs": [],
      "payable": false,
      "stateMutability": "nonpayable",
      "type": "function"
    },
    {
      "constant": true,
      "inputs": [],
      "name": "hardCap",
      "outputs": [
        {
          "name": "",
          "type": "uint256"
        }
      ],
      "payable": false,
      "stateMutability": "view",
      "type": "function"
    },
    {
      "constant": true,
      "inputs": [],
      "name": "token",
      "outputs": [
        {
          "name": "",
          "type": "address"
        }
      ],
      "payable": false,
      "stateMutability": "view",
      "type": "function"
    },
    {
      "inputs": [
        {
          "name": "_startBlock",
          "type": "uint256"
        },
        {
          "name": "_endBlock",
          "type": "uint256"
        },
        {
          "name": "_fixRate",
          "type": "uint256"
        },
        {
          "name": "_cap",
          "type": "uint256"
        },
        {
          "name": "wallet",
          "type": "address"
        }
      ],
      "payable": false,
      "stateMutability": "nonpayable",
      "type": "constructor"
    },
    {
      "payable": true,
      "stateMutability": "payable",
      "type": "fallback"
    },
    {
      "anonymous": false,
      "inputs": [],
      "name": "PreCrowdsaleStarted",
      "type": "event"
    },
    {
      "anonymous": false,
      "inputs": [],
      "name": "CrowdsaleStarted",
      "type": "event"
    },
    {
      "anonymous": false,
      "inputs": [],
      "name": "CrowdsaleFinished",
      "type": "event"
    },
    {
      "anonymous": false,
      "inputs": [
        {
          "indexed": false,
          "name": "rate",
          "type": "uint256"
        }
      ],
      "name": "RateChanged",
      "type": "event"
    },
    {
      "anonymous": false,
      "inputs": [
        {
          "indexed": true,
          "name": "who",
          "type": "address"
        },
        {
          "indexed": false,
          "name": "tokens",
          "type": "uint256"
        }
      ],
      "name": "ExternalPurchase",
      "type": "event"
    },
    {
      "anonymous": false,
      "inputs": [
        {
          "indexed": true,
          "name": "who",
          "type": "address"
        },
        {
          "indexed": false,
          "name": "tokens",
          "type": "uint256"
        }
      ],
      "name": "AirDroppedTokens",
      "type": "event"
    },
    {
      "anonymous": false,
      "inputs": [
        {
          "indexed": false,
          "name": "tokens",
          "type": "uint256"
        }
      ],
      "name": "TeamMintedTokens",
      "type": "event"
    },
    {
      "anonymous": false,
      "inputs": [],
      "name": "Pause",
      "type": "event"
    },
    {
      "anonymous": false,
      "inputs": [],
      "name": "Unpause",
      "type": "event"
    },
    {
      "anonymous": false,
      "inputs": [
        {
          "indexed": true,
          "name": "purchaser",
          "type": "address"
        },
        {
          "indexed": true,
          "name": "beneficiary",
          "type": "address"
        },
        {
          "indexed": false,
          "name": "value",
          "type": "uint256"
        },
        {
          "indexed": false,
          "name": "amount",
          "type": "uint256"
        }
      ],
      "name": "TokenPurchase",
      "type": "event"
    },
    {
      "constant": false,
      "inputs": [
        {
          "name": "buyer",
          "type": "address"
        }
      ],
      "name": "addToWhitelist",
      "outputs": [],
      "payable": false,
      "stateMutability": "nonpayable",
      "type": "function"
    },
    {
      "constant": false,
      "inputs": [
        {
          "name": "_rate",
          "type": "uint256"
        }
      ],
      "name": "setRate",
      "outputs": [],
      "payable": false,
      "stateMutability": "nonpayable",
      "type": "function"
    },
    {
      "constant": false,
      "inputs": [
        {
          "name": "who",
          "type": "address"
        }
      ],
      "name": "buyTokens",
      "outputs": [],
      "payable": true,
      "stateMutability": "payable",
      "type": "function"
    },
    {
      "constant": false,
      "inputs": [
        {
          "name": "who",
          "type": "address"
        },
        {
          "name": "tokens",
          "type": "uint256"
        }
      ],
      "name": "mintTo",
      "outputs": [],
      "payable": false,
      "stateMutability": "nonpayable",
      "type": "function"
    },
    {
      "constant": false,
      "inputs": [
        {
          "name": "who",
          "type": "address"
        },
        {
          "name": "tokens",
          "type": "uint256"
        }
      ],
      "name": "airDrop",
      "outputs": [],
      "payable": false,
      "stateMutability": "nonpayable",
      "type": "function"
    },
    {
      "constant": false,
      "inputs": [
        {
          "name": "_rate",
          "type": "uint256"
        }
      ],
      "name": "endPreICO",
      "outputs": [],
      "payable": false,
      "stateMutability": "nonpayable",
      "type": "function"
    },
    {
      "constant": false,
      "inputs": [],
      "name": "finalize",
      "outputs": [],
      "payable": false,
      "stateMutability": "nonpayable",
      "type": "function"
    },
    {
      "constant": false,
      "inputs": [
        {
          "name": "who",
          "type": "address"
        }
      ],
      "name": "freezeTokens",
      "outputs": [],
      "payable": false,
      "stateMutability": "nonpayable",
      "type": "function"
    },
    {
      "constant": false,
      "inputs": [
        {
          "name": "who",
          "type": "address"
        }
      ],
      "name": "unfreezeTokens",
      "outputs": [],
      "payable": false,
      "stateMutability": "nonpayable",
      "type": "function"
    },
    {
      "constant": false,
      "inputs": [
        {
          "name": "tokens",
          "type": "uint256"
        }
      ],
      "name": "teamMint",
      "outputs": [],
      "payable": false,
      "stateMutability": "nonpayable",
      "type": "function"
    },
    {
      "constant": true,
      "inputs": [],
      "name": "getData",
      "outputs": [
        {
          "name": "",
          "type": "uint256[]"
        }
      ],
      "payable": false,
      "stateMutability": "view",
      "type": "function"
    }
  ],
  "bytecode": "0x60806040526000600660146101000a81548160ff0219169083151502179055503480156200002c57600080fd5b5060405160a08062003f2d8339810180604052810190808051906020019092919080519060200190929190805190602001909291908051906020019092919080519060200190929190505050670de0b6b3a76400008202858585844384101515156200009757600080fd5b838310151515620000a757600080fd5b600082111515620000b757600080fd5b60008173ffffffffffffffffffffffffffffffffffffffff1614151515620000de57600080fd5b620000f762000333640100000000026401000000009004565b6000806101000a81548173ffffffffffffffffffffffffffffffffffffffff021916908373ffffffffffffffffffffffffffffffffffffffff16021790555083600181905550826002819055508160048190555080600360006101000a81548173ffffffffffffffffffffffffffffffffffffffff021916908373ffffffffffffffffffffffffffffffffffffffff1602179055505050505033600660006101000a81548173ffffffffffffffffffffffffffffffffffffffff021916908373ffffffffffffffffffffffffffffffffffffffff160217905550600081111515620001e157600080fd5b80600881905550506000600960006101000a81548160ff021916908360018111156200020957fe5b021790555062e4e1c0600a819055506302faf080600b819055506301c9c380600c81905550624c4b40600d819055506000809054906101000a900473ffffffffffffffffffffffffffffffffffffffff1673ffffffffffffffffffffffffffffffffffffffff16638456cb596040518163ffffffff167c0100000000000000000000000000000000000000000000000000000000028152600401602060405180830381600087803b158015620002be57600080fd5b505af1158015620002d3573d6000803e3d6000fd5b505050506040513d6020811015620002ea57600080fd5b8101908080519060200190929190505050507fb1dd97be97eb6bdaea11005c9af4267f88b6b8031dece9c50460b39cacdce84360405160405180910390a1505050505062000373565b60006200033f62000362565b604051809103906000f0801580156200035c573d6000803e3d6000fd5b50905090565b60405161198780620025a683390190565b61222380620003836000396000f300608060405260043610610180576000357c0100000000000000000000000000000000000000000000000000000000900463ffffffff168063045f78501461018b578063083c6323146101d85780631e52d830146102035780632c4e722e146102305780632fbba1151461025b57806334fcf43714610288578063355274ea146102b55780633af32abf146102e05780633bc5de301461033b5780633f4ba83a146103a75780634042b66f146103d6578063449a52f81461040157806348cd4cb11461044e5780634bb278f314610479578063521eb273146104905780635607f408146104e75780635c975abb1461052a5780636d81779b146105595780638456cb59146105845780638d0b0b76146105b35780638da5cb5b146105de578063906a26e01461063557806390862d1b14610660578063c040e6b8146106a3578063e43252d7146106dc578063ec8ac4d81461071f578063ecb70fb714610755578063f2fde38b14610784578063fb86a404146107c7578063fc0c546a146107f2575b61018933610849565b005b34801561019757600080fd5b506101d6600480360381019080803573ffffffffffffffffffffffffffffffffffffffff16906020019092919080359060200190929190505050610bac565b005b3480156101e457600080fd5b506101ed610de8565b6040518082815260200191505060405180910390f35b34801561020f57600080fd5b5061022e60048036038101908080359060200190929190505050610dee565b005b34801561023c57600080fd5b50610245610f21565b6040518082815260200191505060405180910390f35b34801561026757600080fd5b5061028660048036038101908080359060200190929190505050610f27565b005b34801561029457600080fd5b506102b36004803603810190808035906020019092919050505061115a565b005b3480156102c157600080fd5b506102ca611223565b6040518082815260200191505060405180910390f35b3480156102ec57600080fd5b50610321600480360381019080803573ffffffffffffffffffffffffffffffffffffffff169060200190929190505050611229565b604051808215151515815260200191505060405180910390f35b34801561034757600080fd5b5061035061127f565b6040518080602001828103825283818151815260200191508051906020019060200280838360005b83811015610393578082015181840152602081019050610378565b505050509050019250505060405180910390f35b3480156103b357600080fd5b506103bc61139c565b604051808215151515815260200191505060405180910390f35b3480156103e257600080fd5b506103eb611463565b6040518082815260200191505060405180910390f35b34801561040d57600080fd5b5061044c600480360381019080803573ffffffffffffffffffffffffffffffffffffffff16906020019092919080359060200190929190505050611469565b005b34801561045a57600080fd5b50610463611780565b6040518082815260200191505060405180910390f35b34801561048557600080fd5b5061048e611786565b005b34801561049c57600080fd5b506104a5611a00565b604051808273ffffffffffffffffffffffffffffffffffffffff1673ffffffffffffffffffffffffffffffffffffffff16815260200191505060405180910390f35b3480156104f357600080fd5b50610528600480360381019080803573ffffffffffffffffffffffffffffffffffffffff169060200190929190505050611a26565b005b34801561053657600080fd5b5061053f611b59565b604051808215151515815260200191505060405180910390f35b34801561056557600080fd5b5061056e611b6c565b6040518082815260200191505060405180910390f35b34801561059057600080fd5b50610599611b72565b604051808215151515815260200191505060405180910390f35b3480156105bf57600080fd5b506105c8611c3a565b6040518082815260200191505060405180910390f35b3480156105ea57600080fd5b506105f3611c40565b604051808273ffffffffffffffffffffffffffffffffffffffff1673ffffffffffffffffffffffffffffffffffffffff16815260200191505060405180910390f35b34801561064157600080fd5b5061064a611c66565b6040518082815260200191505060405180910390f35b34801561066c57600080fd5b506106a1600480360381019080803573ffffffffffffffffffffffffffffffffffffffff169060200190929190505050611c6c565b005b3480156106af57600080fd5b506106b8611d9f565b604051808260018111156106c857fe5b60ff16815260200191505060405180910390f35b3480156106e857600080fd5b5061071d600480360381019080803573ffffffffffffffffffffffffffffffffffffffff169060200190929190505050611db2565b005b610753600480360381019080803573ffffffffffffffffffffffffffffffffffffffff169060200190929190505050610849565b005b34801561076157600080fd5b5061076a611e4e565b604051808215151515815260200191505060405180910390f35b34801561079057600080fd5b506107c5600480360381019080803573ffffffffffffffffffffffffffffffffffffffff169060200190929190505050611e71565b005b3480156107d357600080fd5b506107dc611f48565b6040518082815260200191505060405180910390f35b3480156107fe57600080fd5b50610807611f4e565b604051808273ffffffffffffffffffffffffffffffffffffffff1673ffffffffffffffffffffffffffffffffffffffff16815260200191505060405180910390f35b600080600660149054906101000a900460ff1615151561086857600080fd5b60008373ffffffffffffffffffffffffffffffffffffffff161415151561088e57600080fd5b610896611f73565b15156108a157600080fd5b3491506108b960045483611fa990919063ffffffff16565b9050600060018111156108c857fe5b600960009054906101000a900460ff1660018111156108e357fe5b1415610975576108f283611229565b15156108fd57600080fd5b600061092e61091d670de0b6b3a764000084611fe490919063ffffffff16565b600a54611fff90919063ffffffff16565b1015151561093b57600080fd5b61096a610959670de0b6b3a764000083611fe490919063ffffffff16565b600a54611fff90919063ffffffff16565b600a81905550610a17565b60018081111561098157fe5b600960009054906101000a900460ff16600181111561099c57fe5b1415610a165760006109d36109c2670de0b6b3a764000084611fe490919063ffffffff16565b600b54611fff90919063ffffffff16565b101515156109e057600080fd5b610a0f6109fe670de0b6b3a764000083611fe490919063ffffffff16565b600b54611fff90919063ffffffff16565b600b819055505b5b610a2c8260055461201890919063ffffffff16565b6005819055506000809054906101000a900473ffffffffffffffffffffffffffffffffffffffff1673ffffffffffffffffffffffffffffffffffffffff166340c10f1984836040518363ffffffff167c0100000000000000000000000000000000000000000000000000000000028152600401808373ffffffffffffffffffffffffffffffffffffffff1673ffffffffffffffffffffffffffffffffffffffff16815260200182815260200192505050602060405180830381600087803b158015610af657600080fd5b505af1158015610b0a573d6000803e3d6000fd5b505050506040513d6020811015610b2057600080fd5b8101908080519060200190929190505050508273ffffffffffffffffffffffffffffffffffffffff163373ffffffffffffffffffffffffffffffffffffffff167f623b3804fa71d67900d064613da8f94b9617215ee90799290593e1745087ad188484604051808381526020018281526020019250505060405180910390a3610ba7612036565b505050565b600660009054906101000a900473ffffffffffffffffffffffffffffffffffffffff1673ffffffffffffffffffffffffffffffffffffffff163373ffffffffffffffffffffffffffffffffffffffff16141515610c0857600080fd5b60008273ffffffffffffffffffffffffffffffffffffffff1614151515610c2e57600080fd5b600081111515610c3d57600080fd5b6000610c5482600d54611fff90919063ffffffff16565b10151515610c6157600080fd5b610c7681600d54611fff90919063ffffffff16565b600d819055506000809054906101000a900473ffffffffffffffffffffffffffffffffffffffff1673ffffffffffffffffffffffffffffffffffffffff166340c10f1983610cd5670de0b6b3a764000085611fa990919063ffffffff16565b6040518363ffffffff167c0100000000000000000000000000000000000000000000000000000000028152600401808373ffffffffffffffffffffffffffffffffffffffff1673ffffffffffffffffffffffffffffffffffffffff16815260200182815260200192505050602060405180830381600087803b158015610d5a57600080fd5b505af1158015610d6e573d6000803e3d6000fd5b505050506040513d6020811015610d8457600080fd5b8101908080519060200190929190505050508173ffffffffffffffffffffffffffffffffffffffff167fa4171309aa20c94f7b0e295310f4f071d84286aa482020e09431d46f46ce89d9826040518082815260200191505060405180910390a25050565b60025481565b600660009054906101000a900473ffffffffffffffffffffffffffffffffffffffff1673ffffffffffffffffffffffffffffffffffffffff163373ffffffffffffffffffffffffffffffffffffffff16141515610e4a57600080fd5b600660149054906101000a900460ff161515610e6557600080fd5b60006001811115610e7257fe5b600960009054906101000a900460ff166001811115610e8d57fe5b141515610e9957600080fd5b6001600960006101000a81548160ff02191690836001811115610eb857fe5b0217905550610ed4600a54600b5461201890919063ffffffff16565b600b819055506000600a8190555080600481905550610ef161139c565b507f4722e6c4579996b373f4de030a1847ddba1df215e3fc5388223a9873d563e7ef60405160405180910390a150565b60045481565b600660009054906101000a900473ffffffffffffffffffffffffffffffffffffffff1673ffffffffffffffffffffffffffffffffffffffff163373ffffffffffffffffffffffffffffffffffffffff16141515610f8357600080fd5b600081111515610f9257600080fd5b6000610fa982600c54611fff90919063ffffffff16565b10151515610fb657600080fd5b610fbe611e4e565b1515610fc957600080fd5b610fde81600c54611fff90919063ffffffff16565b600c819055506000809054906101000a900473ffffffffffffffffffffffffffffffffffffffff1673ffffffffffffffffffffffffffffffffffffffff166340c10f19600360009054906101000a900473ffffffffffffffffffffffffffffffffffffffff1661105f670de0b6b3a764000085611fa990919063ffffffff16565b6040518363ffffffff167c0100000000000000000000000000000000000000000000000000000000028152600401808373ffffffffffffffffffffffffffffffffffffffff1673ffffffffffffffffffffffffffffffffffffffff16815260200182815260200192505050602060405180830381600087803b1580156110e457600080fd5b505af11580156110f8573d6000803e3d6000fd5b505050506040513d602081101561110e57600080fd5b8101908080519060200190929190505050507fffac78a182cd67da1e10967888bf64ecccf0adda35d9e78d7ea99ff49cc1944d816040518082815260200191505060405180910390a150565b600660149054906101000a900460ff16151561117557600080fd5b600660009054906101000a900473ffffffffffffffffffffffffffffffffffffffff1673ffffffffffffffffffffffffffffffffffffffff163373ffffffffffffffffffffffffffffffffffffffff161415156111d157600080fd5b6000811115156111e057600080fd5b806004819055507f595a30f13a69b616c4d568e2a2b7875fdfe86e4300a049953c76ee278f8f3f106004546040518082815260200191505060405180910390a150565b60085481565b6000600760008373ffffffffffffffffffffffffffffffffffffffff1673ffffffffffffffffffffffffffffffffffffffff16815260200190815260200160002060009054906101000a900460ff169050919050565b60608060076040519080825280602002602001820160405280156112b25781602001602082028038833980820191505090505b5090506008548160008151811015156112c757fe5b90602001906020020181815250506005548160018151811015156112e757fe5b906020019060200201818152505060045481600281518110151561130757fe5b9060200190602002018181525050600a5481600381518110151561132757fe5b9060200190602002018181525050600b5481600481518110151561134757fe5b9060200190602002018181525050600c5481600581518110151561136757fe5b9060200190602002018181525050600d5481600681518110151561138757fe5b90602001906020020181815250508091505090565b6000600660009054906101000a900473ffffffffffffffffffffffffffffffffffffffff1673ffffffffffffffffffffffffffffffffffffffff163373ffffffffffffffffffffffffffffffffffffffff161415156113fa57600080fd5b600660149054906101000a900460ff16151561141557600080fd5b6000600660146101000a81548160ff0219169083151502179055507f7805862f689e2f13df9f062ff482ad3ad112aca9e0847911ed832e158c525b3360405160405180910390a16001905090565b60055481565b600080600660009054906101000a900473ffffffffffffffffffffffffffffffffffffffff1673ffffffffffffffffffffffffffffffffffffffff163373ffffffffffffffffffffffffffffffffffffffff161415156114c857600080fd5b60008473ffffffffffffffffffffffffffffffffffffffff16141515156114ee57600080fd5b6000831115156114fd57600080fd5b611518670de0b6b3a764000084611fa990919063ffffffff16565b915061152f60045483611fe490919063ffffffff16565b90506000600181111561153e57fe5b600960009054906101000a900460ff16600181111561155957fe5b14156115a357600061157684600a54611fff90919063ffffffff16565b1015151561158357600080fd5b61159883600a54611fff90919063ffffffff16565b600a81905550611611565b6001808111156115af57fe5b600960009054906101000a900460ff1660018111156115ca57fe5b14156116105760006115e784600b54611fff90919063ffffffff16565b101515156115f457600080fd5b61160983600b54611fff90919063ffffffff16565b600b819055505b5b6116268160055461201890919063ffffffff16565b6005819055506000809054906101000a900473ffffffffffffffffffffffffffffffffffffffff1673ffffffffffffffffffffffffffffffffffffffff166340c10f1985846040518363ffffffff167c0100000000000000000000000000000000000000000000000000000000028152600401808373ffffffffffffffffffffffffffffffffffffffff1673ffffffffffffffffffffffffffffffffffffffff16815260200182815260200192505050602060405180830381600087803b1580156116f057600080fd5b505af1158015611704573d6000803e3d6000fd5b505050506040513d602081101561171a57600080fd5b8101908080519060200190929190505050508373ffffffffffffffffffffffffffffffffffffffff167f69181863b43a3460f1942b976f71bd5c71682839de880ae175ffbc044c886960836040518082815260200191505060405180910390a250505050565b60015481565b600660009054906101000a900473ffffffffffffffffffffffffffffffffffffffff1673ffffffffffffffffffffffffffffffffffffffff163373ffffffffffffffffffffffffffffffffffffffff161415156117e257600080fd5b600660149054906101000a900460ff1615156117fd57600080fd5b611805611e4e565b151561181057600080fd5b6000600b541115611911576000809054906101000a900473ffffffffffffffffffffffffffffffffffffffff1673ffffffffffffffffffffffffffffffffffffffff166340c10f196000600b546040518363ffffffff167c0100000000000000000000000000000000000000000000000000000000028152600401808373ffffffffffffffffffffffffffffffffffffffff16815260200182815260200192505050602060405180830381600087803b1580156118cc57600080fd5b505af11580156118e0573d6000803e3d6000fd5b505050506040513d60208110156118f657600080fd5b81019080805190602001909291905050505060006008819055505b6000809054906101000a900473ffffffffffffffffffffffffffffffffffffffff1673ffffffffffffffffffffffffffffffffffffffff16633f4ba83a6040518163ffffffff167c0100000000000000000000000000000000000000000000000000000000028152600401602060405180830381600087803b15801561199657600080fd5b505af11580156119aa573d6000803e3d6000fd5b505050506040513d60208110156119c057600080fd5b8101908080519060200190929190505050507f6c08d5fc22afc78558d47102889dc76d6b5eff2c703c6229715aebc4f522627a60405160405180910390a1565b600360009054906101000a900473ffffffffffffffffffffffffffffffffffffffff1681565b600660009054906101000a900473ffffffffffffffffffffffffffffffffffffffff1673ffffffffffffffffffffffffffffffffffffffff163373ffffffffffffffffffffffffffffffffffffffff16141515611a8257600080fd5b6000809054906101000a900473ffffffffffffffffffffffffffffffffffffffff1673ffffffffffffffffffffffffffffffffffffffff16638d1fdf2f826040518263ffffffff167c0100000000000000000000000000000000000000000000000000000000028152600401808273ffffffffffffffffffffffffffffffffffffffff1673ffffffffffffffffffffffffffffffffffffffff168152602001915050600060405180830381600087803b158015611b3e57600080fd5b505af1158015611b52573d6000803e3d6000fd5b5050505050565b600660149054906101000a900460ff1681565b600c5481565b6000600660009054906101000a900473ffffffffffffffffffffffffffffffffffffffff1673ffffffffffffffffffffffffffffffffffffffff163373ffffffffffffffffffffffffffffffffffffffff16141515611bd057600080fd5b600660149054906101000a900460ff16151515611bec57600080fd5b6001600660146101000a81548160ff0219169083151502179055507f6985a02210a168e66602d3235cb6db0e70f92b3ba4d376a33c0f3d9434bff62560405160405180910390a16001905090565b600d5481565b600660009054906101000a900473ffffffffffffffffffffffffffffffffffffffff1681565b600a5481565b600660009054906101000a900473ffffffffffffffffffffffffffffffffffffffff1673ffffffffffffffffffffffffffffffffffffffff163373ffffffffffffffffffffffffffffffffffffffff16141515611cc857600080fd5b6000809054906101000a900473ffffffffffffffffffffffffffffffffffffffff1673ffffffffffffffffffffffffffffffffffffffff166345c8b1a6826040518263ffffffff167c0100000000000000000000000000000000000000000000000000000000028152600401808273ffffffffffffffffffffffffffffffffffffffff1673ffffffffffffffffffffffffffffffffffffffff168152602001915050600060405180830381600087803b158015611d8457600080fd5b505af1158015611d98573d6000803e3d6000fd5b5050505050565b600960009054906101000a900460ff1681565b600660009054906101000a900473ffffffffffffffffffffffffffffffffffffffff1673ffffffffffffffffffffffffffffffffffffffff163373ffffffffffffffffffffffffffffffffffffffff16141515611e0e57600080fd5b60006001811115611e1b57fe5b600960009054906101000a900460ff166001811115611e3657fe5b141515611e4257600080fd5b611e4b816120a1565b50565b60008060085460055410159050611e6361217e565b80611e6b5750805b91505090565b600660009054906101000a900473ffffffffffffffffffffffffffffffffffffffff1673ffffffffffffffffffffffffffffffffffffffff163373ffffffffffffffffffffffffffffffffffffffff16141515611ecd57600080fd5b600073ffffffffffffffffffffffffffffffffffffffff168173ffffffffffffffffffffffffffffffffffffffff16141515611f455780600660006101000a81548173ffffffffffffffffffffffffffffffffffffffff021916908373ffffffffffffffffffffffffffffffffffffffff1602179055505b50565b600b5481565b6000809054906101000a900473ffffffffffffffffffffffffffffffffffffffff1681565b600080600854611f8e3460055461201890919063ffffffff16565b11159050611f9a61218a565b8015611fa35750805b91505090565b6000806000841415611fbe5760009150611fdd565b8284029050828482811515611fcf57fe5b04141515611fd957fe5b8091505b5092915050565b6000808284811515611ff257fe5b0490508091505092915050565b600082821115151561200d57fe5b818303905092915050565b600080828401905083811015151561202c57fe5b8091505092915050565b600360009054906101000a900473ffffffffffffffffffffffffffffffffffffffff1673ffffffffffffffffffffffffffffffffffffffff166108fc349081150290604051600060405180830381858888f1935050505015801561209e573d6000803e3d6000fd5b50565b600660009054906101000a900473ffffffffffffffffffffffffffffffffffffffff1673ffffffffffffffffffffffffffffffffffffffff163373ffffffffffffffffffffffffffffffffffffffff161415156120fd57600080fd5b60008173ffffffffffffffffffffffffffffffffffffffff161415151561212357600080fd5b6001600760008373ffffffffffffffffffffffffffffffffffffffff1673ffffffffffffffffffffffffffffffffffffffff16815260200190815260200160002060006101000a81548160ff02191690831515021790555050565b60006002544311905090565b600080612195611e4e565b1580156121a757506121a633611229565b5b90506121b16121bf565b806121b95750805b91505090565b60008060008043925060015483101580156121dc57506002548311155b9150600034141590508180156121ef5750805b9350505050905600a165627a7a72305820d3768e8425f7796d68856d486523b8ea6e7b8bbb6eff1c03872949355fedda5a002960806040526000600560006101000a81548160ff0219169083151502179055506000600560016101000a81548160ff0219169083151502179055506a52b7d2dcc80cd2e400000060065533600360006101000a81548173ffffffffffffffffffffffffffffffffffffffff021916908373ffffffffffffffffffffffffffffffffffffffff1602179055506118ee806100996000396000f300608060405260043610610112576000357c0100000000000000000000000000000000000000000000000000000000900463ffffffff16806305d2035b1461011757806306fdde0314610146578063095ea7b3146101d657806318160ddd1461023b57806323b872dd14610266578063313ce567146102eb5780633f4ba83a1461031c57806340c10f191461034b57806342966c68146103b057806345c8b1a6146103dd5780635c975abb1461042057806370a082311461044f5780637d64bcb4146104a65780638456cb59146104d55780638d1fdf2f146105045780638da5cb5b1461054757806395d89b411461059e578063a9059cbb1461062e578063dd62ed3e14610693578063f2fde38b1461070a575b600080fd5b34801561012357600080fd5b5061012c61074d565b604051808215151515815260200191505060405180910390f35b34801561015257600080fd5b5061015b610760565b6040518080602001828103825283818151815260200191508051906020019080838360005b8381101561019b578082015181840152602081019050610180565b50505050905090810190601f1680156101c85780820380516001836020036101000a031916815260200191505b509250505060405180910390f35b3480156101e257600080fd5b50610221600480360381019080803573ffffffffffffffffffffffffffffffffffffffff16906020019092919080359060200190929190505050610799565b604051808215151515815260200191505060405180910390f35b34801561024757600080fd5b50610250610920565b6040518082815260200191505060405180910390f35b34801561027257600080fd5b506102d1600480360381019080803573ffffffffffffffffffffffffffffffffffffffff169060200190929190803573ffffffffffffffffffffffffffffffffffffffff16906020019092919080359060200190929190505050610926565b604051808215151515815260200191505060405180910390f35b3480156102f757600080fd5b50610300610958565b604051808260ff1660ff16815260200191505060405180910390f35b34801561032857600080fd5b5061033161095d565b604051808215151515815260200191505060405180910390f35b34801561035757600080fd5b50610396600480360381019080803573ffffffffffffffffffffffffffffffffffffffff16906020019092919080359060200190929190505050610a24565b604051808215151515815260200191505060405180910390f35b3480156103bc57600080fd5b506103db60048036038101908080359060200190929190505050610ba6565b005b3480156103e957600080fd5b5061041e600480360381019080803573ffffffffffffffffffffffffffffffffffffffff169060200190929190505050610cbb565b005b34801561042c57600080fd5b50610435610ddb565b604051808215151515815260200191505060405180910390f35b34801561045b57600080fd5b50610490600480360381019080803573ffffffffffffffffffffffffffffffffffffffff169060200190929190505050610dee565b6040518082815260200191505060405180910390f35b3480156104b257600080fd5b506104bb610e37565b604051808215151515815260200191505060405180910390f35b3480156104e157600080fd5b506104ea610ee3565b604051808215151515815260200191505060405180910390f35b34801561051057600080fd5b50610545600480360381019080803573ffffffffffffffffffffffffffffffffffffffff169060200190929190505050610fab565b005b34801561055357600080fd5b5061055c6110cb565b604051808273ffffffffffffffffffffffffffffffffffffffff1673ffffffffffffffffffffffffffffffffffffffff16815260200191505060405180910390f35b3480156105aa57600080fd5b506105b36110f1565b6040518080602001828103825283818151815260200191508051906020019080838360005b838110156105f35780820151818401526020810190506105d8565b50505050905090810190601f1680156106205780820380516001836020036101000a031916815260200191505b509250505060405180910390f35b34801561063a57600080fd5b50610679600480360381019080803573ffffffffffffffffffffffffffffffffffffffff1690602001909291908035906020019092919050505061112a565b604051808215151515815260200191505060405180910390f35b34801561069f57600080fd5b506106f4600480360381019080803573ffffffffffffffffffffffffffffffffffffffff169060200190929190803573ffffffffffffffffffffffffffffffffffffffff16906020019092919050505061115a565b6040518082815260200191505060405180910390f35b34801561071657600080fd5b5061074b600480360381019080803573ffffffffffffffffffffffffffffffffffffffff1690602001909291905050506111e1565b005b600560019054906101000a900460ff1681565b6040805190810160405280600d81526020017f4b61707974616c20546f6b656e0000000000000000000000000000000000000081525081565b60008082148061082557506000600260003373ffffffffffffffffffffffffffffffffffffffff1673ffffffffffffffffffffffffffffffffffffffff16815260200190815260200160002060008573ffffffffffffffffffffffffffffffffffffffff1673ffffffffffffffffffffffffffffffffffffffff16815260200190815260200160002054145b151561083057600080fd5b81600260003373ffffffffffffffffffffffffffffffffffffffff1673ffffffffffffffffffffffffffffffffffffffff16815260200190815260200160002060008573ffffffffffffffffffffffffffffffffffffffff1673ffffffffffffffffffffffffffffffffffffffff168152602001908152602001600020819055508273ffffffffffffffffffffffffffffffffffffffff163373ffffffffffffffffffffffffffffffffffffffff167f8c5be1e5ebec7d5bd14f71427d1e84f3dd0314c0f7b2291e5b200ac8c7c3b925846040518082815260200191505060405180910390a36001905092915050565b60065481565b6000600560009054906101000a900460ff1615151561094457600080fd5b61094f8484846112b8565b90509392505050565b601281565b6000600360009054906101000a900473ffffffffffffffffffffffffffffffffffffffff1673ffffffffffffffffffffffffffffffffffffffff163373ffffffffffffffffffffffffffffffffffffffff161415156109bb57600080fd5b600560009054906101000a900460ff1615156109d657600080fd5b6000600560006101000a81548160ff0219169083151502179055507f7805862f689e2f13df9f062ff482ad3ad112aca9e0847911ed832e158c525b3360405160405180910390a16001905090565b6000600360009054906101000a900473ffffffffffffffffffffffffffffffffffffffff1673ffffffffffffffffffffffffffffffffffffffff163373ffffffffffffffffffffffffffffffffffffffff16141515610a8257600080fd5b600560019054906101000a900460ff16151515610a9e57600080fd5b610ab38260005461137d90919063ffffffff16565b600081905550610b0b82600160008673ffffffffffffffffffffffffffffffffffffffff1673ffffffffffffffffffffffffffffffffffffffff1681526020019081526020016000205461137d90919063ffffffff16565b600160008573ffffffffffffffffffffffffffffffffffffffff1673ffffffffffffffffffffffffffffffffffffffff168152602001908152602001600020819055508273ffffffffffffffffffffffffffffffffffffffff167f0f6798a560793a54c3bcfe86a93cde1e73087d944c0ea20544137d4121396885836040518082815260200191505060405180910390a26001905092915050565b60008082111515610bb657600080fd5b339050610c0b82600160008473ffffffffffffffffffffffffffffffffffffffff1673ffffffffffffffffffffffffffffffffffffffff1681526020019081526020016000205461139b90919063ffffffff16565b600160008373ffffffffffffffffffffffffffffffffffffffff1673ffffffffffffffffffffffffffffffffffffffff16815260200190815260200160002081905550610c638260005461139b90919063ffffffff16565b6000819055508073ffffffffffffffffffffffffffffffffffffffff167fcc16f5dbb4873280815c1ee09dbd06736cffcc184412cf7a71a0fdb75d397ca5836040518082815260200191505060405180910390a25050565b600360009054906101000a900473ffffffffffffffffffffffffffffffffffffffff1673ffffffffffffffffffffffffffffffffffffffff163373ffffffffffffffffffffffffffffffffffffffff16141515610d1757600080fd5b60008173ffffffffffffffffffffffffffffffffffffffff1614151515610d3d57600080fd5b6000600460008373ffffffffffffffffffffffffffffffffffffffff1673ffffffffffffffffffffffffffffffffffffffff16815260200190815260200160002060006101000a81548160ff0219169083151502179055508073ffffffffffffffffffffffffffffffffffffffff167f495000bab77c122cd7e46bf45a154d1d3a41d7b10838e41bba384a6096403c9460405160405180910390a250565b600560009054906101000a900460ff1681565b6000600160008373ffffffffffffffffffffffffffffffffffffffff1673ffffffffffffffffffffffffffffffffffffffff168152602001908152602001600020549050919050565b6000600360009054906101000a900473ffffffffffffffffffffffffffffffffffffffff1673ffffffffffffffffffffffffffffffffffffffff163373ffffffffffffffffffffffffffffffffffffffff16141515610e9557600080fd5b6001600560016101000a81548160ff0219169083151502179055507fae5184fba832cb2b1f702aca6117b8d265eaf03ad33eb133f19dde0f5920fa0860405160405180910390a16001905090565b6000600360009054906101000a900473ffffffffffffffffffffffffffffffffffffffff1673ffffffffffffffffffffffffffffffffffffffff163373ffffffffffffffffffffffffffffffffffffffff16141515610f4157600080fd5b600560009054906101000a900460ff16151515610f5d57600080fd5b6001600560006101000a81548160ff0219169083151502179055507f6985a02210a168e66602d3235cb6db0e70f92b3ba4d376a33c0f3d9434bff62560405160405180910390a16001905090565b600360009054906101000a900473ffffffffffffffffffffffffffffffffffffffff1673ffffffffffffffffffffffffffffffffffffffff163373ffffffffffffffffffffffffffffffffffffffff1614151561100757600080fd5b60008173ffffffffffffffffffffffffffffffffffffffff161415151561102d57600080fd5b6001600460008373ffffffffffffffffffffffffffffffffffffffff1673ffffffffffffffffffffffffffffffffffffffff16815260200190815260200160002060006101000a81548160ff0219169083151502179055508073ffffffffffffffffffffffffffffffffffffffff167f4ae80cf10a460786338dbb9f2b9779a92c9f9fb4d3edf09d61f14ed928c2d57a60405160405180910390a250565b600360009054906101000a900473ffffffffffffffffffffffffffffffffffffffff1681565b6040805190810160405280600381526020017f4b594c000000000000000000000000000000000000000000000000000000000081525081565b6000600560009054906101000a900460ff1615151561114857600080fd5b61115283836113b4565b905092915050565b6000600260008473ffffffffffffffffffffffffffffffffffffffff1673ffffffffffffffffffffffffffffffffffffffff16815260200190815260200160002060008373ffffffffffffffffffffffffffffffffffffffff1673ffffffffffffffffffffffffffffffffffffffff16815260200190815260200160002054905092915050565b600360009054906101000a900473ffffffffffffffffffffffffffffffffffffffff1673ffffffffffffffffffffffffffffffffffffffff163373ffffffffffffffffffffffffffffffffffffffff1614151561123d57600080fd5b600073ffffffffffffffffffffffffffffffffffffffff168173ffffffffffffffffffffffffffffffffffffffff161415156112b55780600360006101000a81548173ffffffffffffffffffffffffffffffffffffffff021916908373ffffffffffffffffffffffffffffffffffffffff1602179055505b50565b6000600460003373ffffffffffffffffffffffffffffffffffffffff1673ffffffffffffffffffffffffffffffffffffffff16815260200190815260200160002060009054906101000a900460ff1615801561135e5750600460008473ffffffffffffffffffffffffffffffffffffffff1673ffffffffffffffffffffffffffffffffffffffff16815260200190815260200160002060009054906101000a900460ff16155b151561136957600080fd5b611374848484611477565b90509392505050565b600080828401905083811015151561139157fe5b8091505092915050565b60008282111515156113a957fe5b818303905092915050565b6000600460003373ffffffffffffffffffffffffffffffffffffffff1673ffffffffffffffffffffffffffffffffffffffff16815260200190815260200160002060009054906101000a900460ff1615801561145a5750600460008473ffffffffffffffffffffffffffffffffffffffff1673ffffffffffffffffffffffffffffffffffffffff16815260200190815260200160002060009054906101000a900460ff16155b151561146557600080fd5b61146f8383611727565b905092915050565b600080600260008673ffffffffffffffffffffffffffffffffffffffff1673ffffffffffffffffffffffffffffffffffffffff16815260200190815260200160002060003373ffffffffffffffffffffffffffffffffffffffff1673ffffffffffffffffffffffffffffffffffffffff16815260200190815260200160002054905061154b83600160008773ffffffffffffffffffffffffffffffffffffffff1673ffffffffffffffffffffffffffffffffffffffff1681526020019081526020016000205461137d90919063ffffffff16565b600160008673ffffffffffffffffffffffffffffffffffffffff1673ffffffffffffffffffffffffffffffffffffffff168152602001908152602001600020819055506115e083600160008873ffffffffffffffffffffffffffffffffffffffff1673ffffffffffffffffffffffffffffffffffffffff1681526020019081526020016000205461139b90919063ffffffff16565b600160008773ffffffffffffffffffffffffffffffffffffffff1673ffffffffffffffffffffffffffffffffffffffff16815260200190815260200160002081905550611636838261139b90919063ffffffff16565b600260008773ffffffffffffffffffffffffffffffffffffffff1673ffffffffffffffffffffffffffffffffffffffff16815260200190815260200160002060003373ffffffffffffffffffffffffffffffffffffffff1673ffffffffffffffffffffffffffffffffffffffff168152602001908152602001600020819055508373ffffffffffffffffffffffffffffffffffffffff168573ffffffffffffffffffffffffffffffffffffffff167fddf252ad1be2c89b69c2b068fc378daa952ba7f163c4a11628f55a4df523b3ef856040518082815260200191505060405180910390a360019150509392505050565b600061177b82600160003373ffffffffffffffffffffffffffffffffffffffff1673ffffffffffffffffffffffffffffffffffffffff1681526020019081526020016000205461139b90919063ffffffff16565b600160003373ffffffffffffffffffffffffffffffffffffffff1673ffffffffffffffffffffffffffffffffffffffff1681526020019081526020016000208190555061181082600160008673ffffffffffffffffffffffffffffffffffffffff1673ffffffffffffffffffffffffffffffffffffffff1681526020019081526020016000205461137d90919063ffffffff16565b600160008573ffffffffffffffffffffffffffffffffffffffff1673ffffffffffffffffffffffffffffffffffffffff168152602001908152602001600020819055508273ffffffffffffffffffffffffffffffffffffffff163373ffffffffffffffffffffffffffffffffffffffff167fddf252ad1be2c89b69c2b068fc378daa952ba7f163c4a11628f55a4df523b3ef846040518082815260200191505060405180910390a360019050929150505600a165627a7a723058203249ac363e9fdb8b111e39093becdb2d5973fd9be6cd86729a3dca3a93c100a50029",
  "source": "pragma solidity ^0.4.22;\r\n\r\nimport \"./Crowdsale.sol\";\r\n\r\ncontract KYLCrowdsale is Pausable, WhitelistedCrowdsale, CappedCrowdsale{\r\n    enum stages {pICO, ICO}\r\n\r\n    event PreCrowdsaleStarted();\r\n    event CrowdsaleStarted();\r\n    event CrowdsaleFinished();\r\n    event RateChanged(uint256 rate);\r\n\r\n    event ExternalPurchase(address indexed who, uint256 tokens);\r\n    event AirDroppedTokens(address indexed who, uint256 tokens);\r\n    event TeamMintedTokens(uint256 tokens);\r\n\r\n    stages public stage;\r\n\r\n    uint256 public softCap;\r\n    uint256 public hardCap;\r\n    uint256 public teamCap;\r\n    uint256 public airdropCap;\r\n\r\n    /**\r\n    * @dev function: constructor\r\n    * @param _startBlock at what block number, the crowdsale should begin\r\n    * @param _endBlock at what block number, the crowdsale should stop\r\n    * @param _fixRate how many tokens gives 1 ether\r\n    * @param _cap crowdsale capitalization in ether\r\n    * @param wallet address which collects received ether\r\n     */\r\n    constructor(\r\n        uint256 _startBlock, uint256 _endBlock, \r\n        uint256 _fixRate, uint256 _cap,\r\n        address wallet\r\n    )\r\n        public \r\n        Crowdsale(_startBlock, _endBlock, _fixRate, wallet)\r\n        WhitelistedCrowdsale()\r\n        CappedCrowdsale(_cap * (1 ether))\r\n    {\r\n        stage = stages.pICO;\r\n\r\n        softCap = 15000000;\r\n        hardCap = 50000000;\r\n        teamCap = 30000000;\r\n        airdropCap = 5000000;\r\n\r\n        KYLToken(token).pause();\r\n\r\n        emit PreCrowdsaleStarted();\r\n    }\r\n\r\n    /**\r\n    * @dev overriden function\r\n    * @notice creates a mintable compatible token\r\n    * @return the custom token\r\n    */\r\n    function createTokenContract() internal returns (MintableToken) {\r\n        return new KYLToken();\r\n    }\r\n\r\n    /**\r\n    * @dev overriden function\r\n    * @notice owner must be the caller, stage should be preICO\r\n    * @notice adds an address to the early investors whitelist\r\n    */\r\n    function addToWhitelist(address buyer) public onlyOwner{\r\n        require(stage == stages.pICO);\r\n        super.addToWhitelist(buyer);\r\n    }\r\n\r\n    /**\r\n    * @notice owner must be the caller, state should be paused\r\n    * @notice sets a custom rate\r\n    */\r\n    function setRate(uint256 _rate) public whenPaused onlyOwner{\r\n        require(_rate > 0);\r\n        rate = _rate;\r\n        emit RateChanged(rate);\r\n    }\r\n\r\n    /**\r\n    * @dev overriden function\r\n    * @notice crowdsale state should be unpaused\r\n    * @notice a investor can call this function to buy tokens\r\n    * @param who the address where tokens are forwarded\r\n    */\r\n    function buyTokens(address who) public whenNotPaused payable{\r\n        require(who != 0x0);\r\n        require(super.validPurchase());\r\n\r\n        uint256 value = msg.value;\r\n        uint256 tokens = value.mul(rate);\r\n\r\n        if(stage == stages.pICO){\r\n            require(super.isWhitelisted(who));\r\n            require(softCap.sub(tokens.div(1 ether)) >= 0);        \r\n            softCap = softCap.sub(tokens.div(1 ether));\r\n        }else if(stage == stages.ICO){\r\n            require(hardCap.sub(tokens.div(1 ether)) >= 0);\r\n            hardCap = hardCap.sub(tokens.div(1 ether));\r\n        }\r\n        \r\n        weiRaised = weiRaised.add(value);\r\n        token.mint(who, tokens);\r\n        emit TokenPurchase(msg.sender, who, value, tokens);\r\n        \r\n        super.forwardFunds();\r\n    }\r\n\r\n    /**\r\n    * @notice crowdsale state should be unpaused; only callable during preICO, ICO\r\n    * @notice owner can use this function to handle external token purchases\r\n    * @param who the address where tokens are forwarded\r\n    * @param tokens the amount of tokens to be forwarded in KYL's\r\n    */\r\n    function mintTo(address who, uint256 tokens) public onlyOwner{\r\n        require(who != 0x0);\r\n        require(tokens > 0);\r\n\r\n        uint256 total = tokens.mul(1 ether);\r\n        uint256 value = total.div(rate);\r\n\r\n        if(stage == stages.pICO){\r\n            require(softCap.sub(tokens) >= 0);\r\n            softCap = softCap.sub(tokens);\r\n        }else if(stage == stages.ICO){\r\n            require(hardCap.sub(tokens) >= 0);\r\n            hardCap = hardCap.sub(tokens);\r\n        }\r\n\r\n        weiRaised = weiRaised.add(value);\r\n        token.mint(who, total);\r\n        emit ExternalPurchase(who, total);\r\n    }\r\n\r\n    /**\r\n    * @notice callable as long as there are enough tokens to be airdropped\r\n    * @notice owner can use this function to handle token airdrops\r\n    * @param who the address where tokens are forwarded\r\n    * @param tokens the amount of tokens to be forwarded in KYL's\r\n    */\r\n    function airDrop(address who, uint256 tokens) public onlyOwner{\r\n        require(who != 0x0);\r\n        require(tokens > 0);\r\n        require(airdropCap.sub(tokens) >= 0);\r\n\r\n        airdropCap = airdropCap.sub(tokens);\r\n\r\n        token.mint(who, tokens.mul(1 ether));\r\n        emit AirDroppedTokens(who, tokens);\r\n    }\r\n\r\n    /**\r\n    * @notice callable when state is not paused, only by owner\r\n    * @notice ends preICO, if SC is not met, remaining tokens are added to HC\r\n    * @notice sets crowdsale state to unpaused\r\n    * @param _rate at what rate public sale should start\r\n     */\r\n    function endPreICO(uint256 _rate) public onlyOwner whenPaused{\r\n        require(stage == stages.pICO);\r\n\r\n        stage = stages.ICO;\r\n        hardCap = hardCap.add(softCap);\r\n        softCap = 0;\r\n        rate = _rate;\r\n\r\n        super.unpause();\r\n        emit CrowdsaleStarted();\r\n    }\r\n\r\n    /**\r\n    * @notice callable when state is paused, only by owner, after end block has been reached\r\n    * @notice ends crowdsale, if HC is not met, remaining tokens are burned\r\n    * @notice sets token state to unpaused\r\n     */\r\n    function finalize() public onlyOwner whenPaused{\r\n        require(hasEnded());\r\n        \r\n        if(hardCap > 0){\r\n            token.mint(0x0, hardCap);\r\n            cap = 0;\r\n        }\r\n\r\n        KYLToken(token).unpause();\r\n        emit CrowdsaleFinished();\r\n    }\r\n\r\n    /**\r\n    * @notice freeze tokens, in case an address is compromised\r\n    */\r\n    function freezeTokens(address who) public onlyOwner{\r\n        KYLToken(token).freeze(who);\r\n    }\r\n\r\n    /**\r\n    * @notice unfreeze tokens\r\n    */\r\n    function unfreezeTokens(address who) public onlyOwner{\r\n        KYLToken(token).unfreeze(who);\r\n    }\r\n\r\n    /**\r\n    * @notice callable after crowdsale has ended only by owner\r\n    * @notice mint tokens for foundation\r\n    */\r\n    function teamMint(uint256 tokens) public onlyOwner{\r\n        require(tokens > 0);\r\n        require(teamCap.sub(tokens) >= 0);\r\n        require(hasEnded());\r\n\r\n        teamCap = teamCap.sub(tokens);\r\n        token.mint(wallet, tokens.mul(1 ether));\r\n\r\n        emit TeamMintedTokens(tokens);\r\n    }\r\n    \r\n\t/**\r\n\t* @dev brings AIO data view\r\n\t*/\r\n    function getData() public view returns(uint[]){\r\n        uint[] memory data = new uint[](7);\r\n        data[0] = cap;\r\n        data[1] = weiRaised;\r\n        data[2] = rate;\r\n        data[3] = softCap;\r\n        data[4] = hardCap;\r\n        data[5] = teamCap;\r\n        data[6] = airdropCap;\r\n        return data;\r\n    }\r\n}",
  "sourcePath": "C:\\Users\\Alex\\Desktop\\KAPYTAL\\KYL Test\\contracts\\KYLCrowdsale.sol",
  "compiler": {
    "name": "solc",
    "version": "0.4.24+commit.e67f0147.Emscripten.clang"
  },
  "schemaVersion": "2.0.1",
  "updatedAt": "2018-08-01T07:40:30.978Z"
}